{
  "contractName": "Controller",
  "abi": [
    {
      "inputs": [
        {
          "internalType": "contract Repository",
          "name": "_repository",
          "type": "address"
        }
      ],
      "stateMutability": "nonpayable",
      "type": "constructor"
    },
    {
      "anonymous": false,
      "inputs": [
        {
          "indexed": false,
          "internalType": "uint256",
          "name": "patientId",
          "type": "uint256"
        },
        {
          "indexed": false,
          "internalType": "uint256",
          "name": "recordId",
          "type": "uint256"
        }
      ],
      "name": "MedicalRecordCreated",
      "type": "event"
    },
    {
      "inputs": [],
      "name": "repository",
      "outputs": [
        {
          "internalType": "contract Repository",
          "name": "",
          "type": "address"
        }
      ],
      "stateMutability": "view",
      "type": "function"
    },
    {
      "inputs": [
        {
          "internalType": "string",
          "name": "name",
          "type": "string"
        },
        {
          "internalType": "string",
          "name": "dateOfBirth",
          "type": "string"
        }
      ],
      "name": "addPatient",
      "outputs": [],
      "stateMutability": "nonpayable",
      "type": "function"
    },
    {
      "inputs": [
        {
          "internalType": "uint256",
          "name": "patientId",
          "type": "uint256"
        },
        {
          "internalType": "string",
          "name": "newName",
          "type": "string"
        },
        {
          "internalType": "string",
          "name": "newDateOfBirth",
          "type": "string"
        }
      ],
      "name": "updatePatient",
      "outputs": [],
      "stateMutability": "nonpayable",
      "type": "function"
    },
    {
      "inputs": [
        {
          "internalType": "uint256",
          "name": "patientId",
          "type": "uint256"
        },
        {
          "internalType": "string",
          "name": "dateOfVisit",
          "type": "string"
        },
        {
          "internalType": "string",
          "name": "diagnosis",
          "type": "string"
        },
        {
          "internalType": "string",
          "name": "treatment",
          "type": "string"
        }
      ],
      "name": "addMedicalRecord",
      "outputs": [],
      "stateMutability": "nonpayable",
      "type": "function"
    },
    {
      "inputs": [
        {
          "internalType": "uint256",
          "name": "patientId",
          "type": "uint256"
        },
        {
          "internalType": "uint256",
          "name": "medicalRecordId",
          "type": "uint256"
        },
        {
          "internalType": "string",
          "name": "newDateOfVisit",
          "type": "string"
        },
        {
          "internalType": "string",
          "name": "newDiagnosis",
          "type": "string"
        },
        {
          "internalType": "string",
          "name": "newTreatment",
          "type": "string"
        }
      ],
      "name": "updateMedicalRecord",
      "outputs": [],
      "stateMutability": "nonpayable",
      "type": "function"
    }
  ],
  "bytecode": "0x60806040523480156200001157600080fd5b5060405162001173380380620011738339818101604052810190620000379190620000fc565b806000806101000a81548173ffffffffffffffffffffffffffffffffffffffff021916908373ffffffffffffffffffffffffffffffffffffffff160217905550506200012e565b600080fd5b600073ffffffffffffffffffffffffffffffffffffffff82169050919050565b6000620000b08262000083565b9050919050565b6000620000c482620000a3565b9050919050565b620000d681620000b7565b8114620000e257600080fd5b50565b600081519050620000f681620000cb565b92915050565b6000602082840312156200011557620001146200007e565b5b60006200012584828501620000e5565b91505092915050565b611035806200013e6000396000f3fe608060405234801561001057600080fd5b50600436106100565760003560e01c8062ee98061461005b578063239ee6c114610077578063622d6f2e146100935780636b9603a0146100af578063e9176c60146100cb575b600080fd5b610075600480360381019061007091906108a1565b6100e9565b005b610091600480360381019061008c919061095c565b610344565b005b6100ad60048036038101906100a891906109d4565b610461565b005b6100c960048036038101906100c49190610aa3565b6105cd565b005b6100d36106ed565b6040516100e09190610bad565b60405180910390f35b82600081511161012e576040517f08c379a000000000000000000000000000000000000000000000000000000000815260040161012590610c25565b60405180910390fd5b826000815111610173576040517f08c379a000000000000000000000000000000000000000000000000000000000815260040161016a90610c25565b60405180910390fd5b8260008151116101b8576040517f08c379a00000000000000000000000000000000000000000000000000000000081526004016101af90610c25565b60405180910390fd5b60008054906101000a900473ffffffffffffffffffffffffffffffffffffffff1673ffffffffffffffffffffffffffffffffffffffff1662ee9806888888886040518563ffffffff1660e01b81526004016102169493929190610ccb565b600060405180830381600087803b15801561023057600080fd5b505af1158015610244573d6000803e3d6000fd5b505050507f4b72abbca548ccc72c678dd4b920aa7190c89f6f8abc1d34897aa8252b5c1abc87600160008054906101000a900473ffffffffffffffffffffffffffffffffffffffff1673ffffffffffffffffffffffffffffffffffffffff166302ea03f58b6040518263ffffffff1660e01b81526004016102c59190610d25565b60006040518083038186803b1580156102dd57600080fd5b505afa1580156102f1573d6000803e3d6000fd5b505050506040513d6000823e3d601f19601f8201168201806040525081019061031a9190610e46565b516103259190610ebe565b604051610333929190610ef2565b60405180910390a150505050505050565b816000815111610389576040517f08c379a000000000000000000000000000000000000000000000000000000000815260040161038090610c25565b60405180910390fd5b8160008151116103ce576040517f08c379a00000000000000000000000000000000000000000000000000000000081526004016103c590610c25565b60405180910390fd5b60008054906101000a900473ffffffffffffffffffffffffffffffffffffffff1673ffffffffffffffffffffffffffffffffffffffff1663239ee6c185856040518363ffffffff1660e01b8152600401610429929190610f1b565b600060405180830381600087803b15801561044357600080fd5b505af1158015610457573d6000803e3d6000fd5b5050505050505050565b8260008151116104a6576040517f08c379a000000000000000000000000000000000000000000000000000000000815260040161049d90610c25565b60405180910390fd5b8260008151116104eb576040517f08c379a00000000000000000000000000000000000000000000000000000000081526004016104e290610c25565b60405180910390fd5b826000815111610530576040517f08c379a000000000000000000000000000000000000000000000000000000000815260040161052790610c25565b60405180910390fd5b60008054906101000a900473ffffffffffffffffffffffffffffffffffffffff1673ffffffffffffffffffffffffffffffffffffffff1663622d6f2e89898989896040518663ffffffff1660e01b8152600401610591959493929190610f52565b600060405180830381600087803b1580156105ab57600080fd5b505af11580156105bf573d6000803e3d6000fd5b505050505050505050505050565b816000815111610612576040517f08c379a000000000000000000000000000000000000000000000000000000000815260040161060990610c25565b60405180910390fd5b816000815111610657576040517f08c379a000000000000000000000000000000000000000000000000000000000815260040161064e90610c25565b60405180910390fd5b60008054906101000a900473ffffffffffffffffffffffffffffffffffffffff1673ffffffffffffffffffffffffffffffffffffffff16636b9603a08686866040518463ffffffff1660e01b81526004016106b493929190610fba565b600060405180830381600087803b1580156106ce57600080fd5b505af11580156106e2573d6000803e3d6000fd5b505050505050505050565b60008054906101000a900473ffffffffffffffffffffffffffffffffffffffff1681565b6000604051905090565b600080fd5b600080fd5b6000819050919050565b61073881610725565b811461074357600080fd5b50565b6000813590506107558161072f565b92915050565b600080fd5b600080fd5b6000601f19601f8301169050919050565b7f4e487b7100000000000000000000000000000000000000000000000000000000600052604160045260246000fd5b6107ae82610765565b810181811067ffffffffffffffff821117156107cd576107cc610776565b5b80604052505050565b60006107e0610711565b90506107ec82826107a5565b919050565b600067ffffffffffffffff82111561080c5761080b610776565b5b61081582610765565b9050602081019050919050565b82818337600083830152505050565b600061084461083f846107f1565b6107d6565b9050828152602081018484840111156108605761085f610760565b5b61086b848285610822565b509392505050565b600082601f8301126108885761088761075b565b5b8135610898848260208601610831565b91505092915050565b600080600080608085870312156108bb576108ba61071b565b5b60006108c987828801610746565b945050602085013567ffffffffffffffff8111156108ea576108e9610720565b5b6108f687828801610873565b935050604085013567ffffffffffffffff81111561091757610916610720565b5b61092387828801610873565b925050606085013567ffffffffffffffff81111561094457610943610720565b5b61095087828801610873565b91505092959194509250565b600080604083850312156109735761097261071b565b5b600083013567ffffffffffffffff81111561099157610990610720565b5b61099d85828601610873565b925050602083013567ffffffffffffffff8111156109be576109bd610720565b5b6109ca85828601610873565b9150509250929050565b600080600080600060a086880312156109f0576109ef61071b565b5b60006109fe88828901610746565b9550506020610a0f88828901610746565b945050604086013567ffffffffffffffff811115610a3057610a2f610720565b5b610a3c88828901610873565b935050606086013567ffffffffffffffff811115610a5d57610a5c610720565b5b610a6988828901610873565b925050608086013567ffffffffffffffff811115610a8a57610a89610720565b5b610a9688828901610873565b9150509295509295909350565b600080600060608486031215610abc57610abb61071b565b5b6000610aca86828701610746565b935050602084013567ffffffffffffffff811115610aeb57610aea610720565b5b610af786828701610873565b925050604084013567ffffffffffffffff811115610b1857610b17610720565b5b610b2486828701610873565b9150509250925092565b600073ffffffffffffffffffffffffffffffffffffffff82169050919050565b6000819050919050565b6000610b73610b6e610b6984610b2e565b610b4e565b610b2e565b9050919050565b6000610b8582610b58565b9050919050565b6000610b9782610b7a565b9050919050565b610ba781610b8c565b82525050565b6000602082019050610bc26000830184610b9e565b92915050565b600082825260208201905092915050565b7f537472696e67206d757374206e6f7420626520656d7074790000000000000000600082015250565b6000610c0f601883610bc8565b9150610c1a82610bd9565b602082019050919050565b60006020820190508181036000830152610c3e81610c02565b9050919050565b610c4e81610725565b82525050565b600081519050919050565b60005b83811015610c7d578082015181840152602081019050610c62565b83811115610c8c576000848401525b50505050565b6000610c9d82610c54565b610ca78185610bc8565b9350610cb7818560208601610c5f565b610cc081610765565b840191505092915050565b6000608082019050610ce06000830187610c45565b8181036020830152610cf28186610c92565b90508181036040830152610d068185610c92565b90508181036060830152610d1a8184610c92565b905095945050505050565b6000602082019050610d3a6000830184610c45565b92915050565b600067ffffffffffffffff821115610d5b57610d5a610776565b5b602082029050602081019050919050565b600080fd5b6000610d7c82610b2e565b9050919050565b610d8c81610d71565b8114610d9757600080fd5b50565b600081519050610da981610d83565b92915050565b6000610dc2610dbd84610d40565b6107d6565b90508083825260208201905060208402830185811115610de557610de4610d6c565b5b835b81811015610e0e5780610dfa8882610d9a565b845260208401935050602081019050610de7565b5050509392505050565b600082601f830112610e2d57610e2c61075b565b5b8151610e3d848260208601610daf565b91505092915050565b600060208284031215610e5c57610e5b61071b565b5b600082015167ffffffffffffffff811115610e7a57610e79610720565b5b610e8684828501610e18565b91505092915050565b7f4e487b7100000000000000000000000000000000000000000000000000000000600052601160045260246000fd5b6000610ec982610725565b9150610ed483610725565b925082821015610ee757610ee6610e8f565b5b828203905092915050565b6000604082019050610f076000830185610c45565b610f146020830184610c45565b9392505050565b60006040820190508181036000830152610f358185610c92565b90508181036020830152610f498184610c92565b90509392505050565b600060a082019050610f676000830188610c45565b610f746020830187610c45565b8181036040830152610f868186610c92565b90508181036060830152610f9a8185610c92565b90508181036080830152610fae8184610c92565b90509695505050505050565b6000606082019050610fcf6000830186610c45565b8181036020830152610fe18185610c92565b90508181036040830152610ff58184610c92565b905094935050505056fea2646970667358221220a8e364d3c337a33902617332b3a208922c73a4e0f31eb2067909816aa287ea8564736f6c63430008090033",
  "immutableReferences": {},
  "source": "// SPDX-License-Identifier: MIT\npragma solidity ^0.8.0;\n\nimport \"./Repository.sol\";\n\ncontract Controller {\n    Repository public repository;\n\n    event MedicalRecordCreated(uint patientId, uint recordId);\n\n    constructor(Repository _repository) {\n        repository = _repository;\n    }\n\n    modifier notEmptyString(string memory str) {\n        require(bytes(str).length > 0, \"String must not be empty\");\n        _;\n    }\n\n    function addPatient(string memory name, string memory dateOfBirth) public notEmptyString(name) notEmptyString(dateOfBirth){\n        repository.addPatient(name, dateOfBirth);\n    }\n\n    function updatePatient(uint patientId, string memory newName, string memory newDateOfBirth) public notEmptyString(newName) notEmptyString(newDateOfBirth){\n        repository.updatePatient(patientId, newName, newDateOfBirth);\n    }\n\n    function addMedicalRecord(uint patientId, string memory dateOfVisit, string memory diagnosis, string memory treatment) public notEmptyString(dateOfVisit) notEmptyString(diagnosis) notEmptyString(treatment){\n        repository.addMedicalRecord(patientId, dateOfVisit, diagnosis, treatment);\n        emit MedicalRecordCreated(patientId, repository.getAllMedicalRecordsOfPatient(patientId).length - 1);\n    }\n\n    function updateMedicalRecord(uint patientId, uint medicalRecordId, string memory newDateOfVisit, string memory newDiagnosis, string memory newTreatment) public notEmptyString(newDateOfVisit) notEmptyString(newDiagnosis) notEmptyString(newTreatment){\n        repository.updateMedicalRecord(patientId, medicalRecordId, newDateOfVisit, newDiagnosis, newTreatment);\n    }\n\n}\n\n",
  "sourcePath": "/home/senzationall/Desktop/blockchain_cristi/contracts/Controller.sol",
  "compiler": {
    "name": "solc",
    "version": "0.8.9+commit.e5eed63a.Emscripten.clang"
  },
  "schemaVersion": "3.4.16",
  "updatedAt": "2024-05-12T23:04:05.355Z",
  "devdoc": {
    "kind": "dev",
    "methods": {},
    "version": 1
  },
  "userdoc": {
    "kind": "user",
    "methods": {},
    "version": 1
  }
}