{
  "contractName": "MedicalRecordController",
  "abi": [
    {
      "inputs": [
        {
          "internalType": "contract Repository",
          "name": "_repository",
          "type": "address"
        }
      ],
      "stateMutability": "nonpayable",
      "type": "constructor"
    },
    {
      "anonymous": false,
      "inputs": [
        {
          "indexed": false,
          "internalType": "uint256",
          "name": "patientId",
          "type": "uint256"
        },
        {
          "indexed": false,
          "internalType": "uint256",
          "name": "recordId",
          "type": "uint256"
        }
      ],
      "name": "MedicalRecordCreated",
      "type": "event"
    },
    {
      "inputs": [],
      "name": "repository",
      "outputs": [
        {
          "internalType": "contract Repository",
          "name": "",
          "type": "address"
        }
      ],
      "stateMutability": "view",
      "type": "function"
    },
    {
      "inputs": [
        {
          "internalType": "string",
          "name": "name",
          "type": "string"
        },
        {
          "internalType": "string",
          "name": "dateOfBirth",
          "type": "string"
        }
      ],
      "name": "addPatient",
      "outputs": [],
      "stateMutability": "nonpayable",
      "type": "function"
    },
    {
      "inputs": [
        {
          "internalType": "uint256",
          "name": "patientId",
          "type": "uint256"
        },
        {
          "internalType": "string",
          "name": "newName",
          "type": "string"
        },
        {
          "internalType": "string",
          "name": "newDateOfBirth",
          "type": "string"
        }
      ],
      "name": "updatePatient",
      "outputs": [],
      "stateMutability": "nonpayable",
      "type": "function"
    },
    {
      "inputs": [
        {
          "internalType": "uint256",
          "name": "patientId",
          "type": "uint256"
        },
        {
          "internalType": "string",
          "name": "dateOfVisit",
          "type": "string"
        },
        {
          "internalType": "string",
          "name": "diagnosis",
          "type": "string"
        },
        {
          "internalType": "string",
          "name": "treatment",
          "type": "string"
        }
      ],
      "name": "addMedicalRecord",
      "outputs": [],
      "stateMutability": "nonpayable",
      "type": "function"
    },
    {
      "inputs": [
        {
          "internalType": "uint256",
          "name": "patientId",
          "type": "uint256"
        },
        {
          "internalType": "uint256",
          "name": "medicalRecordId",
          "type": "uint256"
        },
        {
          "internalType": "string",
          "name": "newDateOfVisit",
          "type": "string"
        },
        {
          "internalType": "string",
          "name": "newDiagnosis",
          "type": "string"
        },
        {
          "internalType": "string",
          "name": "newTreatment",
          "type": "string"
        }
      ],
      "name": "updateMedicalRecord",
      "outputs": [],
      "stateMutability": "nonpayable",
      "type": "function"
    }
  ],
  "bytecode": "0x608060405234801561001057600080fd5b5060405162000e3938038062000e39833981810160405281019061003491906100ef565b806000806101000a81548173ffffffffffffffffffffffffffffffffffffffff021916908373ffffffffffffffffffffffffffffffffffffffff1602179055505061011c565b600080fd5b600073ffffffffffffffffffffffffffffffffffffffff82169050919050565b60006100aa8261007f565b9050919050565b60006100bc8261009f565b9050919050565b6100cc816100b1565b81146100d757600080fd5b50565b6000815190506100e9816100c3565b92915050565b6000602082840312156101055761010461007a565b5b6000610113848285016100da565b91505092915050565b610d0d806200012c6000396000f3fe608060405234801561001057600080fd5b50600436106100565760003560e01c8062ee98061461005b578063239ee6c114610077578063622d6f2e146100935780636b9603a0146100af578063e9176c60146100cb575b600080fd5b610075600480360381019061007091906105e5565b6100e9565b005b610091600480360381019061008c91906106a0565b610272565b005b6100ad60048036038101906100a89190610718565b610303565b005b6100c960048036038101906100c491906107e7565b61039d565b005b6100d3610431565b6040516100e091906108f1565b60405180910390f35b60008054906101000a900473ffffffffffffffffffffffffffffffffffffffff1673ffffffffffffffffffffffffffffffffffffffff1662ee9806858585856040518563ffffffff1660e01b815260040161014794939291906109a3565b600060405180830381600087803b15801561016157600080fd5b505af1158015610175573d6000803e3d6000fd5b505050507f4b72abbca548ccc72c678dd4b920aa7190c89f6f8abc1d34897aa8252b5c1abc84600160008054906101000a900473ffffffffffffffffffffffffffffffffffffffff1673ffffffffffffffffffffffffffffffffffffffff166302ea03f5886040518263ffffffff1660e01b81526004016101f691906109fd565b60006040518083038186803b15801561020e57600080fd5b505afa158015610222573d6000803e3d6000fd5b505050506040513d6000823e3d601f19601f8201168201806040525081019061024b9190610b1e565b516102569190610b96565b604051610264929190610bca565b60405180910390a150505050565b60008054906101000a900473ffffffffffffffffffffffffffffffffffffffff1673ffffffffffffffffffffffffffffffffffffffff1663239ee6c183836040518363ffffffff1660e01b81526004016102cd929190610bf3565b600060405180830381600087803b1580156102e757600080fd5b505af11580156102fb573d6000803e3d6000fd5b505050505050565b60008054906101000a900473ffffffffffffffffffffffffffffffffffffffff1673ffffffffffffffffffffffffffffffffffffffff1663622d6f2e86868686866040518663ffffffff1660e01b8152600401610364959493929190610c2a565b600060405180830381600087803b15801561037e57600080fd5b505af1158015610392573d6000803e3d6000fd5b505050505050505050565b60008054906101000a900473ffffffffffffffffffffffffffffffffffffffff1673ffffffffffffffffffffffffffffffffffffffff16636b9603a08484846040518463ffffffff1660e01b81526004016103fa93929190610c92565b600060405180830381600087803b15801561041457600080fd5b505af1158015610428573d6000803e3d6000fd5b50505050505050565b60008054906101000a900473ffffffffffffffffffffffffffffffffffffffff1681565b6000604051905090565b600080fd5b600080fd5b6000819050919050565b61047c81610469565b811461048757600080fd5b50565b60008135905061049981610473565b92915050565b600080fd5b600080fd5b6000601f19601f8301169050919050565b7f4e487b7100000000000000000000000000000000000000000000000000000000600052604160045260246000fd5b6104f2826104a9565b810181811067ffffffffffffffff82111715610511576105106104ba565b5b80604052505050565b6000610524610455565b905061053082826104e9565b919050565b600067ffffffffffffffff8211156105505761054f6104ba565b5b610559826104a9565b9050602081019050919050565b82818337600083830152505050565b600061058861058384610535565b61051a565b9050828152602081018484840111156105a4576105a36104a4565b5b6105af848285610566565b509392505050565b600082601f8301126105cc576105cb61049f565b5b81356105dc848260208601610575565b91505092915050565b600080600080608085870312156105ff576105fe61045f565b5b600061060d8782880161048a565b945050602085013567ffffffffffffffff81111561062e5761062d610464565b5b61063a878288016105b7565b935050604085013567ffffffffffffffff81111561065b5761065a610464565b5b610667878288016105b7565b925050606085013567ffffffffffffffff81111561068857610687610464565b5b610694878288016105b7565b91505092959194509250565b600080604083850312156106b7576106b661045f565b5b600083013567ffffffffffffffff8111156106d5576106d4610464565b5b6106e1858286016105b7565b925050602083013567ffffffffffffffff81111561070257610701610464565b5b61070e858286016105b7565b9150509250929050565b600080600080600060a086880312156107345761073361045f565b5b60006107428882890161048a565b95505060206107538882890161048a565b945050604086013567ffffffffffffffff81111561077457610773610464565b5b610780888289016105b7565b935050606086013567ffffffffffffffff8111156107a1576107a0610464565b5b6107ad888289016105b7565b925050608086013567ffffffffffffffff8111156107ce576107cd610464565b5b6107da888289016105b7565b9150509295509295909350565b600080600060608486031215610800576107ff61045f565b5b600061080e8682870161048a565b935050602084013567ffffffffffffffff81111561082f5761082e610464565b5b61083b868287016105b7565b925050604084013567ffffffffffffffff81111561085c5761085b610464565b5b610868868287016105b7565b9150509250925092565b600073ffffffffffffffffffffffffffffffffffffffff82169050919050565b6000819050919050565b60006108b76108b26108ad84610872565b610892565b610872565b9050919050565b60006108c98261089c565b9050919050565b60006108db826108be565b9050919050565b6108eb816108d0565b82525050565b600060208201905061090660008301846108e2565b92915050565b61091581610469565b82525050565b600081519050919050565b600082825260208201905092915050565b60005b8381101561095557808201518184015260208101905061093a565b83811115610964576000848401525b50505050565b60006109758261091b565b61097f8185610926565b935061098f818560208601610937565b610998816104a9565b840191505092915050565b60006080820190506109b8600083018761090c565b81810360208301526109ca818661096a565b905081810360408301526109de818561096a565b905081810360608301526109f2818461096a565b905095945050505050565b6000602082019050610a12600083018461090c565b92915050565b600067ffffffffffffffff821115610a3357610a326104ba565b5b602082029050602081019050919050565b600080fd5b6000610a5482610872565b9050919050565b610a6481610a49565b8114610a6f57600080fd5b50565b600081519050610a8181610a5b565b92915050565b6000610a9a610a9584610a18565b61051a565b90508083825260208201905060208402830185811115610abd57610abc610a44565b5b835b81811015610ae65780610ad28882610a72565b845260208401935050602081019050610abf565b5050509392505050565b600082601f830112610b0557610b0461049f565b5b8151610b15848260208601610a87565b91505092915050565b600060208284031215610b3457610b3361045f565b5b600082015167ffffffffffffffff811115610b5257610b51610464565b5b610b5e84828501610af0565b91505092915050565b7f4e487b7100000000000000000000000000000000000000000000000000000000600052601160045260246000fd5b6000610ba182610469565b9150610bac83610469565b925082821015610bbf57610bbe610b67565b5b828203905092915050565b6000604082019050610bdf600083018561090c565b610bec602083018461090c565b9392505050565b60006040820190508181036000830152610c0d818561096a565b90508181036020830152610c21818461096a565b90509392505050565b600060a082019050610c3f600083018861090c565b610c4c602083018761090c565b8181036040830152610c5e818661096a565b90508181036060830152610c72818561096a565b90508181036080830152610c86818461096a565b90509695505050505050565b6000606082019050610ca7600083018661090c565b8181036020830152610cb9818561096a565b90508181036040830152610ccd818461096a565b905094935050505056fea264697066735822122056ec48cf424ded72797ab0e73b50019f887e82467b3a4f1ccedf8c52d20cc99564736f6c63430008090033",
  "immutableReferences": {},
  "source": "// SPDX-License-Identifier: MIT\npragma solidity ^0.8.0;\n\nimport \"./Repository.sol\";\n\ncontract MedicalRecordController {\n    Repository public repository;\n\n    event MedicalRecordCreated(uint patientId, uint recordId);\n\n    constructor(Repository _repository) {\n        repository = _repository;\n    }\n\n    function addPatient(string memory name, string memory dateOfBirth) public {\n        repository.addPatient(name, dateOfBirth);\n    }\n\n    function updatePatient(uint patientId, string memory newName, string memory newDateOfBirth) public {\n        repository.updatePatient(patientId, newName, newDateOfBirth);\n    }\n\n    function addMedicalRecord(uint patientId, string memory dateOfVisit, string memory diagnosis, string memory treatment) public {\n        repository.addMedicalRecord(patientId, dateOfVisit, diagnosis, treatment);\n        emit MedicalRecordCreated(patientId, repository.getAllMedicalRecordsOfPatient(patientId).length - 1);\n    }\n\n    function updateMedicalRecord(uint patientId, uint medicalRecordId, string memory newDateOfVisit, string memory newDiagnosis, string memory newTreatment) public {\n        repository.updateMedicalRecord(patientId, medicalRecordId, newDateOfVisit, newDiagnosis, newTreatment);\n    }\n\n}\n\n",
  "sourcePath": "/home/senzationall/Desktop/blockchain_cristi/contracts/Controller.sol",
  "compiler": {
    "name": "solc",
    "version": "0.8.9+commit.e5eed63a.Emscripten.clang"
  },
  "schemaVersion": "3.4.16",
  "updatedAt": "2024-05-12T22:47:50.676Z",
  "devdoc": {
    "kind": "dev",
    "methods": {},
    "version": 1
  },
  "userdoc": {
    "kind": "user",
    "methods": {},
    "version": 1
  }
}