{
  "contractName": "MedicalRecord",
  "abi": [
    {
      "inputs": [
        {
          "internalType": "uint256",
          "name": "_id",
          "type": "uint256"
        },
        {
          "internalType": "uint256",
          "name": "_patientId",
          "type": "uint256"
        },
        {
          "internalType": "string",
          "name": "_dateOfVisit",
          "type": "string"
        },
        {
          "internalType": "string",
          "name": "_diagnosis",
          "type": "string"
        },
        {
          "internalType": "string",
          "name": "_treatment",
          "type": "string"
        }
      ],
      "stateMutability": "nonpayable",
      "type": "constructor"
    },
    {
      "inputs": [],
      "name": "dateOfVisit",
      "outputs": [
        {
          "internalType": "string",
          "name": "",
          "type": "string"
        }
      ],
      "stateMutability": "view",
      "type": "function"
    },
    {
      "inputs": [],
      "name": "diagnosis",
      "outputs": [
        {
          "internalType": "string",
          "name": "",
          "type": "string"
        }
      ],
      "stateMutability": "view",
      "type": "function"
    },
    {
      "inputs": [],
      "name": "id",
      "outputs": [
        {
          "internalType": "uint256",
          "name": "",
          "type": "uint256"
        }
      ],
      "stateMutability": "view",
      "type": "function"
    },
    {
      "inputs": [],
      "name": "patientId",
      "outputs": [
        {
          "internalType": "uint256",
          "name": "",
          "type": "uint256"
        }
      ],
      "stateMutability": "view",
      "type": "function"
    },
    {
      "inputs": [],
      "name": "treatment",
      "outputs": [
        {
          "internalType": "string",
          "name": "",
          "type": "string"
        }
      ],
      "stateMutability": "view",
      "type": "function"
    },
    {
      "inputs": [
        {
          "internalType": "string",
          "name": "_dateOfVisit",
          "type": "string"
        },
        {
          "internalType": "string",
          "name": "_diagnosis",
          "type": "string"
        },
        {
          "internalType": "string",
          "name": "_treatment",
          "type": "string"
        }
      ],
      "name": "updateRecord",
      "outputs": [],
      "stateMutability": "nonpayable",
      "type": "function"
    }
  ],
  "bytecode": "0x60806040523480156200001157600080fd5b5060405162000baf38038062000baf833981810160405281019062000037919062000323565b846000819055508360018190555082600290805190602001906200005d9291906200009b565b508160039080519060200190620000769291906200009b565b5080600490805190602001906200008f9291906200009b565b5050505050506200046d565b828054620000a99062000437565b90600052602060002090601f016020900481019282620000cd576000855562000119565b82601f10620000e857805160ff191683800117855562000119565b8280016001018555821562000119579182015b8281111562000118578251825591602001919060010190620000fb565b5b5090506200012891906200012c565b5090565b5b80821115620001475760008160009055506001016200012d565b5090565b6000604051905090565b600080fd5b600080fd5b6000819050919050565b62000174816200015f565b81146200018057600080fd5b50565b600081519050620001948162000169565b92915050565b600080fd5b600080fd5b6000601f19601f8301169050919050565b7f4e487b7100000000000000000000000000000000000000000000000000000000600052604160045260246000fd5b620001ef82620001a4565b810181811067ffffffffffffffff82111715620002115762000210620001b5565b5b80604052505050565b6000620002266200014b565b9050620002348282620001e4565b919050565b600067ffffffffffffffff821115620002575762000256620001b5565b5b6200026282620001a4565b9050602081019050919050565b60005b838110156200028f57808201518184015260208101905062000272565b838111156200029f576000848401525b50505050565b6000620002bc620002b68462000239565b6200021a565b905082815260208101848484011115620002db57620002da6200019f565b5b620002e88482856200026f565b509392505050565b600082601f8301126200030857620003076200019a565b5b81516200031a848260208601620002a5565b91505092915050565b600080600080600060a0868803121562000342576200034162000155565b5b6000620003528882890162000183565b9550506020620003658882890162000183565b945050604086015167ffffffffffffffff8111156200038957620003886200015a565b5b6200039788828901620002f0565b935050606086015167ffffffffffffffff811115620003bb57620003ba6200015a565b5b620003c988828901620002f0565b925050608086015167ffffffffffffffff811115620003ed57620003ec6200015a565b5b620003fb88828901620002f0565b9150509295509295909350565b7f4e487b7100000000000000000000000000000000000000000000000000000000600052602260045260246000fd5b600060028204905060018216806200045057607f821691505b6020821081141562000467576200046662000408565b5b50919050565b610732806200047d6000396000f3fe608060405234801561001057600080fd5b50600436106100625760003560e01c8063395c2add146100675780638beed22a14610085578063af640d0f146100a3578063ca310670146100c1578063e07f4444146100df578063f30562b6146100fd575b600080fd5b61006f610119565b60405161007c9190610455565b60405180910390f35b61008d6101a7565b60405161009a9190610455565b60405180910390f35b6100ab610235565b6040516100b89190610490565b60405180910390f35b6100c961023b565b6040516100d69190610455565b60405180910390f35b6100e76102c9565b6040516100f49190610490565b60405180910390f35b610117600480360381019061011291906105f4565b6102cf565b005b60028054610126906106ca565b80601f0160208091040260200160405190810160405280929190818152602001828054610152906106ca565b801561019f5780601f106101745761010080835404028352916020019161019f565b820191906000526020600020905b81548152906001019060200180831161018257829003601f168201915b505050505081565b600380546101b4906106ca565b80601f01602080910402602001604051908101604052809291908181526020018280546101e0906106ca565b801561022d5780601f106102025761010080835404028352916020019161022d565b820191906000526020600020905b81548152906001019060200180831161021057829003601f168201915b505050505081565b60005481565b60048054610248906106ca565b80601f0160208091040260200160405190810160405280929190818152602001828054610274906106ca565b80156102c15780601f10610296576101008083540402835291602001916102c1565b820191906000526020600020905b8154815290600101906020018083116102a457829003601f168201915b505050505081565b60015481565b82600290805190602001906102e5929190610319565b5081600390805190602001906102fc929190610319565b508060049080519060200190610313929190610319565b50505050565b828054610325906106ca565b90600052602060002090601f016020900481019282610347576000855561038e565b82601f1061036057805160ff191683800117855561038e565b8280016001018555821561038e579182015b8281111561038d578251825591602001919060010190610372565b5b50905061039b919061039f565b5090565b5b808211156103b85760008160009055506001016103a0565b5090565b600081519050919050565b600082825260208201905092915050565b60005b838110156103f65780820151818401526020810190506103db565b83811115610405576000848401525b50505050565b6000601f19601f8301169050919050565b6000610427826103bc565b61043181856103c7565b93506104418185602086016103d8565b61044a8161040b565b840191505092915050565b6000602082019050818103600083015261046f818461041c565b905092915050565b6000819050919050565b61048a81610477565b82525050565b60006020820190506104a56000830184610481565b92915050565b6000604051905090565b600080fd5b600080fd5b600080fd5b600080fd5b7f4e487b7100000000000000000000000000000000000000000000000000000000600052604160045260246000fd5b6105018261040b565b810181811067ffffffffffffffff821117156105205761051f6104c9565b5b80604052505050565b60006105336104ab565b905061053f82826104f8565b919050565b600067ffffffffffffffff82111561055f5761055e6104c9565b5b6105688261040b565b9050602081019050919050565b82818337600083830152505050565b600061059761059284610544565b610529565b9050828152602081018484840111156105b3576105b26104c4565b5b6105be848285610575565b509392505050565b600082601f8301126105db576105da6104bf565b5b81356105eb848260208601610584565b91505092915050565b60008060006060848603121561060d5761060c6104b5565b5b600084013567ffffffffffffffff81111561062b5761062a6104ba565b5b610637868287016105c6565b935050602084013567ffffffffffffffff811115610658576106576104ba565b5b610664868287016105c6565b925050604084013567ffffffffffffffff811115610685576106846104ba565b5b610691868287016105c6565b9150509250925092565b7f4e487b7100000000000000000000000000000000000000000000000000000000600052602260045260246000fd5b600060028204905060018216806106e257607f821691505b602082108114156106f6576106f561069b565b5b5091905056fea264697066735822122006976a271e26b4e1db7d3433601508c53fc535f275d5830ad4ccb0d1dc1b322b64736f6c63430008090033",
  "immutableReferences": {},
  "source": "// SPDX-License-Identifier: MIT\r\npragma solidity ^0.8.0;\r\n\r\ncontract MedicalRecord {\r\n    uint public id;\r\n    uint public patientId;\r\n    string public dateOfVisit;\r\n    string public diagnosis;\r\n    string public treatment;\r\n\r\n    constructor(uint _id, uint _patientId, string memory _dateOfVisit, string memory _diagnosis, string memory _treatment) {\r\n        id = _id;\r\n        patientId = _patientId;\r\n        dateOfVisit = _dateOfVisit;\r\n        diagnosis = _diagnosis;\r\n        treatment = _treatment;\r\n    }\r\n\r\n    function updateRecord(string memory _dateOfVisit, string memory _diagnosis, string memory _treatment) public {\r\n        dateOfVisit = _dateOfVisit;\r\n        diagnosis = _diagnosis;\r\n        treatment = _treatment;\r\n    }\r\n}\r\n",
  "sourcePath": "C:\\Users\\munte\\Desktop\\FirstContract\\ceva\\contracts\\MedicalRecord.sol",
  "compiler": {
    "name": "solc",
    "version": "0.8.9+commit.e5eed63a.Emscripten.clang"
  },
  "schemaVersion": "3.4.16",
  "updatedAt": "2024-05-11T18:43:08.125Z",
  "devdoc": {
    "kind": "dev",
    "methods": {},
    "version": 1
  },
  "userdoc": {
    "kind": "user",
    "methods": {},
    "version": 1
  }
}