{
  "contractName": "Patient",
  "abi": [
    {
      "inputs": [
        {
          "internalType": "uint256",
          "name": "_id",
          "type": "uint256"
        },
        {
          "internalType": "string",
          "name": "_name",
          "type": "string"
        },
        {
          "internalType": "string",
          "name": "_dateOfBirth",
          "type": "string"
        }
      ],
      "stateMutability": "nonpayable",
      "type": "constructor"
    },
    {
      "inputs": [],
      "name": "dateOfBirth",
      "outputs": [
        {
          "internalType": "string",
          "name": "",
          "type": "string"
        }
      ],
      "stateMutability": "view",
      "type": "function"
    },
    {
      "inputs": [],
      "name": "id",
      "outputs": [
        {
          "internalType": "uint256",
          "name": "",
          "type": "uint256"
        }
      ],
      "stateMutability": "view",
      "type": "function"
    },
    {
      "inputs": [
        {
          "internalType": "uint256",
          "name": "",
          "type": "uint256"
        }
      ],
      "name": "medicalRecords",
      "outputs": [
        {
          "internalType": "address",
          "name": "",
          "type": "address"
        }
      ],
      "stateMutability": "view",
      "type": "function"
    },
    {
      "inputs": [],
      "name": "name",
      "outputs": [
        {
          "internalType": "string",
          "name": "",
          "type": "string"
        }
      ],
      "stateMutability": "view",
      "type": "function"
    },
    {
      "inputs": [
        {
          "internalType": "address",
          "name": "recordAddress",
          "type": "address"
        }
      ],
      "name": "addMedicalRecord",
      "outputs": [],
      "stateMutability": "nonpayable",
      "type": "function"
    },
    {
      "inputs": [],
      "name": "getMedicalRecords",
      "outputs": [
        {
          "internalType": "address[]",
          "name": "",
          "type": "address[]"
        }
      ],
      "stateMutability": "view",
      "type": "function"
    },
    {
      "inputs": [
        {
          "internalType": "string",
          "name": "_name",
          "type": "string"
        },
        {
          "internalType": "string",
          "name": "_dateOfBirth",
          "type": "string"
        }
      ],
      "name": "updateDetails",
      "outputs": [],
      "stateMutability": "nonpayable",
      "type": "function"
    },
    {
      "inputs": [],
      "name": "getMedicalRecordsCount",
      "outputs": [
        {
          "internalType": "uint256",
          "name": "",
          "type": "uint256"
        }
      ],
      "stateMutability": "view",
      "type": "function"
    }
  ],
  "bytecode": "0x60806040523480156200001157600080fd5b5060405162000e0738038062000e07833981810160405281019062000037919062000301565b8260008190555081600190805190602001906200005692919062000079565b5080600290805190602001906200006f92919062000079565b5050505062000400565b8280546200008790620003ca565b90600052602060002090601f016020900481019282620000ab5760008555620000f7565b82601f10620000c657805160ff1916838001178555620000f7565b82800160010185558215620000f7579182015b82811115620000f6578251825591602001919060010190620000d9565b5b5090506200010691906200010a565b5090565b5b80821115620001255760008160009055506001016200010b565b5090565b6000604051905090565b600080fd5b600080fd5b6000819050919050565b62000152816200013d565b81146200015e57600080fd5b50565b600081519050620001728162000147565b92915050565b600080fd5b600080fd5b6000601f19601f8301169050919050565b7f4e487b7100000000000000000000000000000000000000000000000000000000600052604160045260246000fd5b620001cd8262000182565b810181811067ffffffffffffffff82111715620001ef57620001ee62000193565b5b80604052505050565b60006200020462000129565b9050620002128282620001c2565b919050565b600067ffffffffffffffff82111562000235576200023462000193565b5b620002408262000182565b9050602081019050919050565b60005b838110156200026d57808201518184015260208101905062000250565b838111156200027d576000848401525b50505050565b60006200029a620002948462000217565b620001f8565b905082815260208101848484011115620002b957620002b86200017d565b5b620002c68482856200024d565b509392505050565b600082601f830112620002e657620002e562000178565b5b8151620002f884826020860162000283565b91505092915050565b6000806000606084860312156200031d576200031c62000133565b5b60006200032d8682870162000161565b935050602084015167ffffffffffffffff81111562000351576200035062000138565b5b6200035f86828701620002ce565b925050604084015167ffffffffffffffff81111562000383576200038262000138565b5b6200039186828701620002ce565b9150509250925092565b7f4e487b7100000000000000000000000000000000000000000000000000000000600052602260045260246000fd5b60006002820490506001821680620003e357607f821691505b60208210811415620003fa57620003f96200039b565b5b50919050565b6109f780620004106000396000f3fe608060405234801561001057600080fd5b50600436106100885760003560e01c8063921defe21161005b578063921defe214610117578063ac1bc7e814610135578063af640d0f14610151578063d868de851461016f57610088565b806306fdde031461008d578063615dac4e146100ab5780636aea20d3146100c95780637564a13c146100e7575b600080fd5b61009561018b565b6040516100a2919061055b565b60405180910390f35b6100b3610219565b6040516100c0919061055b565b60405180910390f35b6100d16102a7565b6040516100de919061066d565b60405180910390f35b61010160048036038101906100fc91906106d9565b610335565b60405161010e9190610715565b60405180910390f35b61011f610374565b60405161012c919061073f565b60405180910390f35b61014f600480360381019061014a919061088f565b610381565b005b6101596103b3565b604051610166919061073f565b60405180910390f35b61018960048036038101906101849190610933565b6103b9565b005b600180546101989061098f565b80601f01602080910402602001604051908101604052809291908181526020018280546101c49061098f565b80156102115780601f106101e657610100808354040283529160200191610211565b820191906000526020600020905b8154815290600101906020018083116101f457829003601f168201915b505050505081565b600280546102269061098f565b80601f01602080910402602001604051908101604052809291908181526020018280546102529061098f565b801561029f5780601f106102745761010080835404028352916020019161029f565b820191906000526020600020905b81548152906001019060200180831161028257829003601f168201915b505050505081565b6060600380548060200260200160405190810160405280929190818152602001828054801561032b57602002820191906000526020600020905b8160009054906101000a900473ffffffffffffffffffffffffffffffffffffffff1673ffffffffffffffffffffffffffffffffffffffff16815260200190600101908083116102e1575b5050505050905090565b6003818154811061034557600080fd5b906000526020600020016000915054906101000a900473ffffffffffffffffffffffffffffffffffffffff1681565b6000600380549050905090565b816001908051906020019061039792919061041f565b5080600290805190602001906103ae92919061041f565b505050565b60005481565b6003819080600181540180825580915050600190039060005260206000200160009091909190916101000a81548173ffffffffffffffffffffffffffffffffffffffff021916908373ffffffffffffffffffffffffffffffffffffffff16021790555050565b82805461042b9061098f565b90600052602060002090601f01602090048101928261044d5760008555610494565b82601f1061046657805160ff1916838001178555610494565b82800160010185558215610494579182015b82811115610493578251825591602001919060010190610478565b5b5090506104a191906104a5565b5090565b5b808211156104be5760008160009055506001016104a6565b5090565b600081519050919050565b600082825260208201905092915050565b60005b838110156104fc5780820151818401526020810190506104e1565b8381111561050b576000848401525b50505050565b6000601f19601f8301169050919050565b600061052d826104c2565b61053781856104cd565b93506105478185602086016104de565b61055081610511565b840191505092915050565b600060208201905081810360008301526105758184610522565b905092915050565b600081519050919050565b600082825260208201905092915050565b6000819050602082019050919050565b600073ffffffffffffffffffffffffffffffffffffffff82169050919050565b60006105d4826105a9565b9050919050565b6105e4816105c9565b82525050565b60006105f683836105db565b60208301905092915050565b6000602082019050919050565b600061061a8261057d565b6106248185610588565b935061062f83610599565b8060005b8381101561066057815161064788826105ea565b975061065283610602565b925050600181019050610633565b5085935050505092915050565b60006020820190508181036000830152610687818461060f565b905092915050565b6000604051905090565b600080fd5b600080fd5b6000819050919050565b6106b6816106a3565b81146106c157600080fd5b50565b6000813590506106d3816106ad565b92915050565b6000602082840312156106ef576106ee610699565b5b60006106fd848285016106c4565b91505092915050565b61070f816105c9565b82525050565b600060208201905061072a6000830184610706565b92915050565b610739816106a3565b82525050565b60006020820190506107546000830184610730565b92915050565b600080fd5b600080fd5b7f4e487b7100000000000000000000000000000000000000000000000000000000600052604160045260246000fd5b61079c82610511565b810181811067ffffffffffffffff821117156107bb576107ba610764565b5b80604052505050565b60006107ce61068f565b90506107da8282610793565b919050565b600067ffffffffffffffff8211156107fa576107f9610764565b5b61080382610511565b9050602081019050919050565b82818337600083830152505050565b600061083261082d846107df565b6107c4565b90508281526020810184848401111561084e5761084d61075f565b5b610859848285610810565b509392505050565b600082601f8301126108765761087561075a565b5b813561088684826020860161081f565b91505092915050565b600080604083850312156108a6576108a5610699565b5b600083013567ffffffffffffffff8111156108c4576108c361069e565b5b6108d085828601610861565b925050602083013567ffffffffffffffff8111156108f1576108f061069e565b5b6108fd85828601610861565b9150509250929050565b610910816105c9565b811461091b57600080fd5b50565b60008135905061092d81610907565b92915050565b60006020828403121561094957610948610699565b5b60006109578482850161091e565b91505092915050565b7f4e487b7100000000000000000000000000000000000000000000000000000000600052602260045260246000fd5b600060028204905060018216806109a757607f821691505b602082108114156109bb576109ba610960565b5b5091905056fea2646970667358221220e98506770a70b09fd2e091c488cac5b0a68d2fd74d875d40149f972148e784bc64736f6c63430008090033",
  "immutableReferences": {},
  "source": "// SPDX-License-Identifier: MIT\r\npragma solidity ^0.8.0;\r\n\r\ncontract Patient {\r\n    uint public id;\r\n    string public name;\r\n    string public dateOfBirth;\r\n    address[] public medicalRecords;\r\n\r\n    constructor(uint _id, string memory _name, string memory _dateOfBirth) {\r\n        id = _id;\r\n        name = _name;\r\n        dateOfBirth = _dateOfBirth;\r\n    }\r\n\r\n    function addMedicalRecord(address recordAddress) public {\r\n        medicalRecords.push(recordAddress);\r\n    }\r\n\r\n    function getMedicalRecords() public view returns (address[] memory) {\r\n        return medicalRecords;\r\n    }\r\n\r\n    function updateDetails(string memory _name, string memory _dateOfBirth) public {\r\n        name = _name;\r\n        dateOfBirth = _dateOfBirth;\r\n    }\r\n\r\n    function getMedicalRecordsCount() public view returns (uint) {\r\n        return medicalRecords.length;\r\n    }\r\n}\r\n",
  "sourcePath": "C:\\Users\\munte\\Desktop\\FirstContract\\ceva\\contracts\\Patient.sol",
  "compiler": {
    "name": "solc",
    "version": "0.8.9+commit.e5eed63a.Emscripten.clang"
  },
  "schemaVersion": "3.4.16",
  "updatedAt": "2024-05-11T18:43:08.136Z",
  "devdoc": {
    "kind": "dev",
    "methods": {},
    "version": 1
  },
  "userdoc": {
    "kind": "user",
    "methods": {},
    "version": 1
  }
}