{
  "contractName": "Repository",
  "abi": [
    {
      "anonymous": false,
      "inputs": [
        {
          "indexed": false,
          "internalType": "uint256",
          "name": "recordId",
          "type": "uint256"
        },
        {
          "indexed": false,
          "internalType": "address",
          "name": "recordAddress",
          "type": "address"
        }
      ],
      "name": "MedicalRecordAdded",
      "type": "event"
    },
    {
      "anonymous": false,
      "inputs": [
        {
          "indexed": false,
          "internalType": "uint256",
          "name": "patientId",
          "type": "uint256"
        },
        {
          "indexed": false,
          "internalType": "uint256",
          "name": "medicalRecordId",
          "type": "uint256"
        },
        {
          "indexed": false,
          "internalType": "string",
          "name": "newDateOfVisit",
          "type": "string"
        },
        {
          "indexed": false,
          "internalType": "string",
          "name": "newDiagnosis",
          "type": "string"
        },
        {
          "indexed": false,
          "internalType": "string",
          "name": "newTreatment",
          "type": "string"
        }
      ],
      "name": "MedicalRecordUpdated",
      "type": "event"
    },
    {
      "anonymous": false,
      "inputs": [
        {
          "indexed": false,
          "internalType": "uint256",
          "name": "patientdId",
          "type": "uint256"
        },
        {
          "indexed": false,
          "internalType": "address",
          "name": "patientAddress",
          "type": "address"
        }
      ],
      "name": "PatientAdded",
      "type": "event"
    },
    {
      "anonymous": false,
      "inputs": [
        {
          "indexed": false,
          "internalType": "uint256",
          "name": "patientId",
          "type": "uint256"
        },
        {
          "indexed": false,
          "internalType": "string",
          "name": "newName",
          "type": "string"
        },
        {
          "indexed": false,
          "internalType": "string",
          "name": "newDateOfBirth",
          "type": "string"
        }
      ],
      "name": "PatientUpdated",
      "type": "event"
    },
    {
      "inputs": [
        {
          "internalType": "uint256",
          "name": "",
          "type": "uint256"
        }
      ],
      "name": "patients",
      "outputs": [
        {
          "internalType": "address",
          "name": "",
          "type": "address"
        }
      ],
      "stateMutability": "view",
      "type": "function",
      "constant": true
    },
    {
      "inputs": [
        {
          "internalType": "string",
          "name": "name",
          "type": "string"
        },
        {
          "internalType": "string",
          "name": "dateOfBirth",
          "type": "string"
        }
      ],
      "name": "addPatient",
      "outputs": [],
      "stateMutability": "nonpayable",
      "type": "function"
    },
    {
      "inputs": [
        {
          "internalType": "uint256",
          "name": "patientId",
          "type": "uint256"
        },
        {
          "internalType": "string",
          "name": "newName",
          "type": "string"
        },
        {
          "internalType": "string",
          "name": "newDateOfBirth",
          "type": "string"
        }
      ],
      "name": "updatePatient",
      "outputs": [],
      "stateMutability": "nonpayable",
      "type": "function"
    },
    {
      "inputs": [
        {
          "internalType": "uint256",
          "name": "patientId",
          "type": "uint256"
        },
        {
          "internalType": "string",
          "name": "dateOfVisit",
          "type": "string"
        },
        {
          "internalType": "string",
          "name": "diagnosis",
          "type": "string"
        },
        {
          "internalType": "string",
          "name": "treatment",
          "type": "string"
        }
      ],
      "name": "addMedicalRecord",
      "outputs": [],
      "stateMutability": "nonpayable",
      "type": "function"
    },
    {
      "inputs": [
        {
          "internalType": "uint256",
          "name": "patientId",
          "type": "uint256"
        },
        {
          "internalType": "uint256",
          "name": "medicalRecordId",
          "type": "uint256"
        },
        {
          "internalType": "string",
          "name": "newDateOfVisit",
          "type": "string"
        },
        {
          "internalType": "string",
          "name": "newDiagnosis",
          "type": "string"
        },
        {
          "internalType": "string",
          "name": "newTreatment",
          "type": "string"
        }
      ],
      "name": "updateMedicalRecord",
      "outputs": [],
      "stateMutability": "nonpayable",
      "type": "function"
    },
    {
      "inputs": [
        {
          "internalType": "uint256",
          "name": "patientId",
          "type": "uint256"
        }
      ],
      "name": "getPatient",
      "outputs": [
        {
          "internalType": "address",
          "name": "",
          "type": "address"
        }
      ],
      "stateMutability": "view",
      "type": "function",
      "constant": true
    },
    {
      "inputs": [
        {
          "internalType": "uint256",
          "name": "patientId",
          "type": "uint256"
        }
      ],
      "name": "getAllMedicalRecordsOfPatient",
      "outputs": [
        {
          "internalType": "address[]",
          "name": "",
          "type": "address[]"
        }
      ],
      "stateMutability": "view",
      "type": "function",
      "constant": true
    },
    {
      "inputs": [
        {
          "internalType": "uint256",
          "name": "patientId",
          "type": "uint256"
        },
        {
          "internalType": "uint256",
          "name": "medicalRecordId",
          "type": "uint256"
        }
      ],
      "name": "getCertainMedicalRecordOfPatient",
      "outputs": [
        {
          "internalType": "address",
          "name": "",
          "type": "address"
        }
      ],
      "stateMutability": "view",
      "type": "function",
      "constant": true
    }
  ],
  "bytecode": "0x6080604052600060015534801561001557600080fd5b5061330d806100256000396000f3fe60806040523480156200001157600080fd5b5060043610620000935760003560e01c8063622d6f2e1162000063578063622d6f2e14620001445780636b9603a014620001645780637d3a6796146200018457806393119a8314620001ba5762000093565b8062ee9806146200009857806302ea03f514620000b8578063239ee6c114620000ee578063392c7d24146200010e575b600080fd5b620000b66004803603810190620000b0919062000e5d565b620001f0565b005b620000d66004803603810190620000d0919062000f2c565b620003ec565b604051620000e5919062001060565b60405180910390f35b6200010c600480360381019062000106919062001084565b620004fb565b005b6200012c600480360381019062000126919062001109565b620005ec565b6040516200013b919062001161565b60405180910390f35b6200016260048036038101906200015c91906200117e565b620007f9565b005b6200018260048036038101906200017c919062001263565b62000aae565b005b620001a260048036038101906200019c919062000f2c565b62000bda565b604051620001b1919062001161565b60405180910390f35b620001d86004803603810190620001d2919062000f2c565b62000c5d565b604051620001e7919062001161565b60405180910390f35b600154841062000237576040517f08c379a00000000000000000000000000000000000000000000000000000000081526004016200022e906200135e565b60405180910390fd5b600080600086815260200190815260200160002060009054906101000a900473ffffffffffffffffffffffffffffffffffffffff16905060008173ffffffffffffffffffffffffffffffffffffffff1663921defe26040518163ffffffff1660e01b815260040160206040518083038186803b158015620002b757600080fd5b505afa158015620002cc573d6000803e3d6000fd5b505050506040513d601f19601f82011682018060405250810190620002f2919062001397565b905060008187878787604051620003099062000c90565b620003199594939291906200145c565b604051809103906000f08015801562000336573d6000803e3d6000fd5b5090508273ffffffffffffffffffffffffffffffffffffffff1663d868de85826040518263ffffffff1660e01b815260040162000374919062001161565b600060405180830381600087803b1580156200038f57600080fd5b505af1158015620003a4573d6000803e3d6000fd5b505050507fe044e1a74d838bb16071292163edcd9738bebc4ce13f0f82970765915f55b5408282604051620003db929190620014ce565b60405180910390a150505050505050565b6060600154821062000435576040517f08c379a00000000000000000000000000000000000000000000000000000000081526004016200042c906200154b565b60405180910390fd5b600080600084815260200190815260200160002060009054906101000a900473ffffffffffffffffffffffffffffffffffffffff1690508073ffffffffffffffffffffffffffffffffffffffff16636aea20d36040518163ffffffff1660e01b815260040160006040518083038186803b158015620004b357600080fd5b505afa158015620004c8573d6000803e3d6000fd5b505050506040513d6000823e3d601f19601f82011682018060405250810190620004f3919062001679565b915050919050565b60006001548383604051620005109062000c9e565b6200051e93929190620016ca565b604051809103906000f0801580156200053b573d6000803e3d6000fd5b50905080600080600154815260200190815260200160002060006101000a81548173ffffffffffffffffffffffffffffffffffffffff021916908373ffffffffffffffffffffffffffffffffffffffff1602179055507e8ee0d7f73acba2d90cbbea216105d2cc694594456539675e4a1d750fa9bda060015482604051620005c5929190620014ce565b60405180910390a160016000815480929190620005e29062001744565b9190505550505050565b6000600154831062000635576040517f08c379a00000000000000000000000000000000000000000000000000000000081526004016200062c906200154b565b60405180910390fd5b600080600085815260200190815260200160002060009054906101000a900473ffffffffffffffffffffffffffffffffffffffff16905060008173ffffffffffffffffffffffffffffffffffffffff1663921defe26040518163ffffffff1660e01b815260040160206040518083038186803b158015620006b557600080fd5b505afa158015620006ca573d6000803e3d6000fd5b505050506040513d601f19601f82011682018060405250810190620006f0919062001397565b905080841062000737576040517f08c379a00000000000000000000000000000000000000000000000000000000081526004016200072e9062001808565b60405180910390fd5b60008273ffffffffffffffffffffffffffffffffffffffff16636aea20d36040518163ffffffff1660e01b815260040160006040518083038186803b1580156200078057600080fd5b505afa15801562000795573d6000803e3d6000fd5b505050506040513d6000823e3d601f19601f82011682018060405250810190620007c0919062001679565b905080600186620007d291906200182a565b81518110620007e657620007e562001865565b5b6020026020010151935050505092915050565b600154851062000840576040517f08c379a000000000000000000000000000000000000000000000000000000000815260040162000837906200135e565b60405180910390fd5b600080600087815260200190815260200160002060009054906101000a900473ffffffffffffffffffffffffffffffffffffffff16905060008173ffffffffffffffffffffffffffffffffffffffff1663921defe26040518163ffffffff1660e01b815260040160206040518083038186803b158015620008c057600080fd5b505afa158015620008d5573d6000803e3d6000fd5b505050506040513d601f19601f82011682018060405250810190620008fb919062001397565b905080861062000942576040517f08c379a0000000000000000000000000000000000000000000000000000000008152600401620009399062001808565b60405180910390fd5b60008273ffffffffffffffffffffffffffffffffffffffff16636aea20d36040518163ffffffff1660e01b815260040160006040518083038186803b1580156200098b57600080fd5b505afa158015620009a0573d6000803e3d6000fd5b505050506040513d6000823e3d601f19601f82011682018060405250810190620009cb919062001679565b90506000818881518110620009e557620009e462001865565b5b602002602001015190508073ffffffffffffffffffffffffffffffffffffffff1663f30562b68888886040518463ffffffff1660e01b815260040162000a2e9392919062001894565b600060405180830381600087803b15801562000a4957600080fd5b505af115801562000a5e573d6000803e3d6000fd5b505050507febb9e826e044d243c0bd3f13da41959bdb651a44ad974447504e4bd0a5bba95d898989898960405162000a9b9594939291906200145c565b60405180910390a1505050505050505050565b600154831062000af5576040517f08c379a000000000000000000000000000000000000000000000000000000000815260040162000aec906200154b565b60405180910390fd5b60008084815260200190815260200160002060009054906101000a900473ffffffffffffffffffffffffffffffffffffffff1673ffffffffffffffffffffffffffffffffffffffff1663ac1bc7e883836040518363ffffffff1660e01b815260040162000b64929190620018e6565b600060405180830381600087803b15801562000b7f57600080fd5b505af115801562000b94573d6000803e3d6000fd5b505050507fc1fdae1aa238a14149f13bc47ec4a1c106aa10b5c96acaa16129fa42d43c580a83838360405162000bcd93929190620016ca565b60405180910390a1505050565b6000600154821062000c23576040517f08c379a000000000000000000000000000000000000000000000000000000000815260040162000c1a906200154b565b60405180910390fd5b60008083815260200190815260200160002060009054906101000a900473ffffffffffffffffffffffffffffffffffffffff169050919050565b60006020528060005260406000206000915054906101000a900473ffffffffffffffffffffffffffffffffffffffff1681565b610baf806200192283390190565b610e0780620024d183390190565b6000604051905090565b600080fd5b600080fd5b6000819050919050565b62000cd58162000cc0565b811462000ce157600080fd5b50565b60008135905062000cf58162000cca565b92915050565b600080fd5b600080fd5b6000601f19601f8301169050919050565b7f4e487b7100000000000000000000000000000000000000000000000000000000600052604160045260246000fd5b62000d508262000d05565b810181811067ffffffffffffffff8211171562000d725762000d7162000d16565b5b80604052505050565b600062000d8762000cac565b905062000d95828262000d45565b919050565b600067ffffffffffffffff82111562000db85762000db762000d16565b5b62000dc38262000d05565b9050602081019050919050565b82818337600083830152505050565b600062000df662000df08462000d9a565b62000d7b565b90508281526020810184848401111562000e155762000e1462000d00565b5b62000e2284828562000dd0565b509392505050565b600082601f83011262000e425762000e4162000cfb565b5b813562000e5484826020860162000ddf565b91505092915050565b6000806000806080858703121562000e7a5762000e7962000cb6565b5b600062000e8a8782880162000ce4565b945050602085013567ffffffffffffffff81111562000eae5762000ead62000cbb565b5b62000ebc8782880162000e2a565b935050604085013567ffffffffffffffff81111562000ee05762000edf62000cbb565b5b62000eee8782880162000e2a565b925050606085013567ffffffffffffffff81111562000f125762000f1162000cbb565b5b62000f208782880162000e2a565b91505092959194509250565b60006020828403121562000f455762000f4462000cb6565b5b600062000f558482850162000ce4565b91505092915050565b600081519050919050565b600082825260208201905092915050565b6000819050602082019050919050565b600073ffffffffffffffffffffffffffffffffffffffff82169050919050565b600062000fb78262000f8a565b9050919050565b62000fc98162000faa565b82525050565b600062000fdd838362000fbe565b60208301905092915050565b6000602082019050919050565b6000620010038262000f5e565b6200100f818562000f69565b93506200101c8362000f7a565b8060005b838110156200105357815162001037888262000fcf565b9750620010448362000fe9565b92505060018101905062001020565b5085935050505092915050565b600060208201905081810360008301526200107c818462000ff6565b905092915050565b600080604083850312156200109e576200109d62000cb6565b5b600083013567ffffffffffffffff811115620010bf57620010be62000cbb565b5b620010cd8582860162000e2a565b925050602083013567ffffffffffffffff811115620010f157620010f062000cbb565b5b620010ff8582860162000e2a565b9150509250929050565b6000806040838503121562001123576200112262000cb6565b5b6000620011338582860162000ce4565b9250506020620011468582860162000ce4565b9150509250929050565b6200115b8162000faa565b82525050565b600060208201905062001178600083018462001150565b92915050565b600080600080600060a086880312156200119d576200119c62000cb6565b5b6000620011ad8882890162000ce4565b9550506020620011c08882890162000ce4565b945050604086013567ffffffffffffffff811115620011e457620011e362000cbb565b5b620011f28882890162000e2a565b935050606086013567ffffffffffffffff81111562001216576200121562000cbb565b5b620012248882890162000e2a565b925050608086013567ffffffffffffffff81111562001248576200124762000cbb565b5b620012568882890162000e2a565b9150509295509295909350565b6000806000606084860312156200127f576200127e62000cb6565b5b60006200128f8682870162000ce4565b935050602084013567ffffffffffffffff811115620012b357620012b262000cbb565b5b620012c18682870162000e2a565b925050604084013567ffffffffffffffff811115620012e557620012e462000cbb565b5b620012f38682870162000e2a565b9150509250925092565b600082825260208201905092915050565b7f50617469656e7420646f6573206e6f7420657869737400000000000000000000600082015250565b600062001346601683620012fd565b915062001353826200130e565b602082019050919050565b60006020820190508181036000830152620013798162001337565b9050919050565b600081519050620013918162000cca565b92915050565b600060208284031215620013b057620013af62000cb6565b5b6000620013c08482850162001380565b91505092915050565b620013d48162000cc0565b82525050565b600081519050919050565b60005b8381101562001405578082015181840152602081019050620013e8565b8381111562001415576000848401525b50505050565b60006200142882620013da565b620014348185620012fd565b935062001446818560208601620013e5565b620014518162000d05565b840191505092915050565b600060a082019050620014736000830188620013c9565b620014826020830187620013c9565b81810360408301526200149681866200141b565b90508181036060830152620014ac81856200141b565b90508181036080830152620014c281846200141b565b90509695505050505050565b6000604082019050620014e56000830185620013c9565b620014f4602083018462001150565b9392505050565b7f50617469656e7420646f6573206e6f7420657869737421000000000000000000600082015250565b600062001533601783620012fd565b91506200154082620014fb565b602082019050919050565b60006020820190508181036000830152620015668162001524565b9050919050565b600067ffffffffffffffff8211156200158b576200158a62000d16565b5b602082029050602081019050919050565b600080fd5b620015ac8162000faa565b8114620015b857600080fd5b50565b600081519050620015cc81620015a1565b92915050565b6000620015e9620015e3846200156d565b62000d7b565b905080838252602082019050602084028301858111156200160f576200160e6200159c565b5b835b818110156200163c5780620016278882620015bb565b84526020840193505060208101905062001611565b5050509392505050565b600082601f8301126200165e576200165d62000cfb565b5b815162001670848260208601620015d2565b91505092915050565b60006020828403121562001692576200169162000cb6565b5b600082015167ffffffffffffffff811115620016b357620016b262000cbb565b5b620016c18482850162001646565b91505092915050565b6000606082019050620016e16000830186620013c9565b8181036020830152620016f581856200141b565b905081810360408301526200170b81846200141b565b9050949350505050565b7f4e487b7100000000000000000000000000000000000000000000000000000000600052601160045260246000fd5b6000620017518262000cc0565b91507fffffffffffffffffffffffffffffffffffffffffffffffffffffffffffffffff82141562001787576200178662001715565b5b600182019050919050565b7f4d65646963616c205265636f726420776974682074686520676976656e20494460008201527f20646f6573206e6f7420657869737420666f7220746861742070617469656e74602082015250565b6000620017f0604083620012fd565b9150620017fd8262001792565b604082019050919050565b600060208201905081810360008301526200182381620017e1565b9050919050565b6000620018378262000cc0565b9150620018448362000cc0565b9250828210156200185a576200185962001715565b5b828203905092915050565b7f4e487b7100000000000000000000000000000000000000000000000000000000600052603260045260246000fd5b60006060820190508181036000830152620018b081866200141b565b90508181036020830152620018c681856200141b565b90508181036040830152620018dc81846200141b565b9050949350505050565b600060408201905081810360008301526200190281856200141b565b905081810360208301526200191881846200141b565b9050939250505056fe60806040523480156200001157600080fd5b5060405162000baf38038062000baf833981810160405281019062000037919062000323565b846000819055508360018190555082600290805190602001906200005d9291906200009b565b508160039080519060200190620000769291906200009b565b5080600490805190602001906200008f9291906200009b565b5050505050506200046d565b828054620000a99062000437565b90600052602060002090601f016020900481019282620000cd576000855562000119565b82601f10620000e857805160ff191683800117855562000119565b8280016001018555821562000119579182015b8281111562000118578251825591602001919060010190620000fb565b5b5090506200012891906200012c565b5090565b5b80821115620001475760008160009055506001016200012d565b5090565b6000604051905090565b600080fd5b600080fd5b6000819050919050565b62000174816200015f565b81146200018057600080fd5b50565b600081519050620001948162000169565b92915050565b600080fd5b600080fd5b6000601f19601f8301169050919050565b7f4e487b7100000000000000000000000000000000000000000000000000000000600052604160045260246000fd5b620001ef82620001a4565b810181811067ffffffffffffffff82111715620002115762000210620001b5565b5b80604052505050565b6000620002266200014b565b9050620002348282620001e4565b919050565b600067ffffffffffffffff821115620002575762000256620001b5565b5b6200026282620001a4565b9050602081019050919050565b60005b838110156200028f57808201518184015260208101905062000272565b838111156200029f576000848401525b50505050565b6000620002bc620002b68462000239565b6200021a565b905082815260208101848484011115620002db57620002da6200019f565b5b620002e88482856200026f565b509392505050565b600082601f8301126200030857620003076200019a565b5b81516200031a848260208601620002a5565b91505092915050565b600080600080600060a0868803121562000342576200034162000155565b5b6000620003528882890162000183565b9550506020620003658882890162000183565b945050604086015167ffffffffffffffff8111156200038957620003886200015a565b5b6200039788828901620002f0565b935050606086015167ffffffffffffffff811115620003bb57620003ba6200015a565b5b620003c988828901620002f0565b925050608086015167ffffffffffffffff811115620003ed57620003ec6200015a565b5b620003fb88828901620002f0565b9150509295509295909350565b7f4e487b7100000000000000000000000000000000000000000000000000000000600052602260045260246000fd5b600060028204905060018216806200045057607f821691505b6020821081141562000467576200046662000408565b5b50919050565b610732806200047d6000396000f3fe608060405234801561001057600080fd5b50600436106100625760003560e01c8063395c2add146100675780638beed22a14610085578063af640d0f146100a3578063ca310670146100c1578063e07f4444146100df578063f30562b6146100fd575b600080fd5b61006f610119565b60405161007c9190610455565b60405180910390f35b61008d6101a7565b60405161009a9190610455565b60405180910390f35b6100ab610235565b6040516100b89190610490565b60405180910390f35b6100c961023b565b6040516100d69190610455565b60405180910390f35b6100e76102c9565b6040516100f49190610490565b60405180910390f35b610117600480360381019061011291906105f4565b6102cf565b005b60028054610126906106ca565b80601f0160208091040260200160405190810160405280929190818152602001828054610152906106ca565b801561019f5780601f106101745761010080835404028352916020019161019f565b820191906000526020600020905b81548152906001019060200180831161018257829003601f168201915b505050505081565b600380546101b4906106ca565b80601f01602080910402602001604051908101604052809291908181526020018280546101e0906106ca565b801561022d5780601f106102025761010080835404028352916020019161022d565b820191906000526020600020905b81548152906001019060200180831161021057829003601f168201915b505050505081565b60005481565b60048054610248906106ca565b80601f0160208091040260200160405190810160405280929190818152602001828054610274906106ca565b80156102c15780601f10610296576101008083540402835291602001916102c1565b820191906000526020600020905b8154815290600101906020018083116102a457829003601f168201915b505050505081565b60015481565b82600290805190602001906102e5929190610319565b5081600390805190602001906102fc929190610319565b508060049080519060200190610313929190610319565b50505050565b828054610325906106ca565b90600052602060002090601f016020900481019282610347576000855561038e565b82601f1061036057805160ff191683800117855561038e565b8280016001018555821561038e579182015b8281111561038d578251825591602001919060010190610372565b5b50905061039b919061039f565b5090565b5b808211156103b85760008160009055506001016103a0565b5090565b600081519050919050565b600082825260208201905092915050565b60005b838110156103f65780820151818401526020810190506103db565b83811115610405576000848401525b50505050565b6000601f19601f8301169050919050565b6000610427826103bc565b61043181856103c7565b93506104418185602086016103d8565b61044a8161040b565b840191505092915050565b6000602082019050818103600083015261046f818461041c565b905092915050565b6000819050919050565b61048a81610477565b82525050565b60006020820190506104a56000830184610481565b92915050565b6000604051905090565b600080fd5b600080fd5b600080fd5b600080fd5b7f4e487b7100000000000000000000000000000000000000000000000000000000600052604160045260246000fd5b6105018261040b565b810181811067ffffffffffffffff821117156105205761051f6104c9565b5b80604052505050565b60006105336104ab565b905061053f82826104f8565b919050565b600067ffffffffffffffff82111561055f5761055e6104c9565b5b6105688261040b565b9050602081019050919050565b82818337600083830152505050565b600061059761059284610544565b610529565b9050828152602081018484840111156105b3576105b26104c4565b5b6105be848285610575565b509392505050565b600082601f8301126105db576105da6104bf565b5b81356105eb848260208601610584565b91505092915050565b60008060006060848603121561060d5761060c6104b5565b5b600084013567ffffffffffffffff81111561062b5761062a6104ba565b5b610637868287016105c6565b935050602084013567ffffffffffffffff811115610658576106576104ba565b5b610664868287016105c6565b925050604084013567ffffffffffffffff811115610685576106846104ba565b5b610691868287016105c6565b9150509250925092565b7f4e487b7100000000000000000000000000000000000000000000000000000000600052602260045260246000fd5b600060028204905060018216806106e257607f821691505b602082108114156106f6576106f561069b565b5b5091905056fea2646970667358221220da28fe5a0b6b8999f1a185d14af51e8659293dfcc751b7d75a2db11a6270a52f64736f6c6343000809003360806040523480156200001157600080fd5b5060405162000e0738038062000e07833981810160405281019062000037919062000301565b8260008190555081600190805190602001906200005692919062000079565b5080600290805190602001906200006f92919062000079565b5050505062000400565b8280546200008790620003ca565b90600052602060002090601f016020900481019282620000ab5760008555620000f7565b82601f10620000c657805160ff1916838001178555620000f7565b82800160010185558215620000f7579182015b82811115620000f6578251825591602001919060010190620000d9565b5b5090506200010691906200010a565b5090565b5b80821115620001255760008160009055506001016200010b565b5090565b6000604051905090565b600080fd5b600080fd5b6000819050919050565b62000152816200013d565b81146200015e57600080fd5b50565b600081519050620001728162000147565b92915050565b600080fd5b600080fd5b6000601f19601f8301169050919050565b7f4e487b7100000000000000000000000000000000000000000000000000000000600052604160045260246000fd5b620001cd8262000182565b810181811067ffffffffffffffff82111715620001ef57620001ee62000193565b5b80604052505050565b60006200020462000129565b9050620002128282620001c2565b919050565b600067ffffffffffffffff82111562000235576200023462000193565b5b620002408262000182565b9050602081019050919050565b60005b838110156200026d57808201518184015260208101905062000250565b838111156200027d576000848401525b50505050565b60006200029a620002948462000217565b620001f8565b905082815260208101848484011115620002b957620002b86200017d565b5b620002c68482856200024d565b509392505050565b600082601f830112620002e657620002e562000178565b5b8151620002f884826020860162000283565b91505092915050565b6000806000606084860312156200031d576200031c62000133565b5b60006200032d8682870162000161565b935050602084015167ffffffffffffffff81111562000351576200035062000138565b5b6200035f86828701620002ce565b925050604084015167ffffffffffffffff81111562000383576200038262000138565b5b6200039186828701620002ce565b9150509250925092565b7f4e487b7100000000000000000000000000000000000000000000000000000000600052602260045260246000fd5b60006002820490506001821680620003e357607f821691505b60208210811415620003fa57620003f96200039b565b5b50919050565b6109f780620004106000396000f3fe608060405234801561001057600080fd5b50600436106100885760003560e01c8063921defe21161005b578063921defe214610117578063ac1bc7e814610135578063af640d0f14610151578063d868de851461016f57610088565b806306fdde031461008d578063615dac4e146100ab5780636aea20d3146100c95780637564a13c146100e7575b600080fd5b61009561018b565b6040516100a2919061055b565b60405180910390f35b6100b3610219565b6040516100c0919061055b565b60405180910390f35b6100d16102a7565b6040516100de919061066d565b60405180910390f35b61010160048036038101906100fc91906106d9565b610335565b60405161010e9190610715565b60405180910390f35b61011f610374565b60405161012c919061073f565b60405180910390f35b61014f600480360381019061014a919061088f565b610381565b005b6101596103b3565b604051610166919061073f565b60405180910390f35b61018960048036038101906101849190610933565b6103b9565b005b600180546101989061098f565b80601f01602080910402602001604051908101604052809291908181526020018280546101c49061098f565b80156102115780601f106101e657610100808354040283529160200191610211565b820191906000526020600020905b8154815290600101906020018083116101f457829003601f168201915b505050505081565b600280546102269061098f565b80601f01602080910402602001604051908101604052809291908181526020018280546102529061098f565b801561029f5780601f106102745761010080835404028352916020019161029f565b820191906000526020600020905b81548152906001019060200180831161028257829003601f168201915b505050505081565b6060600380548060200260200160405190810160405280929190818152602001828054801561032b57602002820191906000526020600020905b8160009054906101000a900473ffffffffffffffffffffffffffffffffffffffff1673ffffffffffffffffffffffffffffffffffffffff16815260200190600101908083116102e1575b5050505050905090565b6003818154811061034557600080fd5b906000526020600020016000915054906101000a900473ffffffffffffffffffffffffffffffffffffffff1681565b6000600380549050905090565b816001908051906020019061039792919061041f565b5080600290805190602001906103ae92919061041f565b505050565b60005481565b6003819080600181540180825580915050600190039060005260206000200160009091909190916101000a81548173ffffffffffffffffffffffffffffffffffffffff021916908373ffffffffffffffffffffffffffffffffffffffff16021790555050565b82805461042b9061098f565b90600052602060002090601f01602090048101928261044d5760008555610494565b82601f1061046657805160ff1916838001178555610494565b82800160010185558215610494579182015b82811115610493578251825591602001919060010190610478565b5b5090506104a191906104a5565b5090565b5b808211156104be5760008160009055506001016104a6565b5090565b600081519050919050565b600082825260208201905092915050565b60005b838110156104fc5780820151818401526020810190506104e1565b8381111561050b576000848401525b50505050565b6000601f19601f8301169050919050565b600061052d826104c2565b61053781856104cd565b93506105478185602086016104de565b61055081610511565b840191505092915050565b600060208201905081810360008301526105758184610522565b905092915050565b600081519050919050565b600082825260208201905092915050565b6000819050602082019050919050565b600073ffffffffffffffffffffffffffffffffffffffff82169050919050565b60006105d4826105a9565b9050919050565b6105e4816105c9565b82525050565b60006105f683836105db565b60208301905092915050565b6000602082019050919050565b600061061a8261057d565b6106248185610588565b935061062f83610599565b8060005b8381101561066057815161064788826105ea565b975061065283610602565b925050600181019050610633565b5085935050505092915050565b60006020820190508181036000830152610687818461060f565b905092915050565b6000604051905090565b600080fd5b600080fd5b6000819050919050565b6106b6816106a3565b81146106c157600080fd5b50565b6000813590506106d3816106ad565b92915050565b6000602082840312156106ef576106ee610699565b5b60006106fd848285016106c4565b91505092915050565b61070f816105c9565b82525050565b600060208201905061072a6000830184610706565b92915050565b610739816106a3565b82525050565b60006020820190506107546000830184610730565b92915050565b600080fd5b600080fd5b7f4e487b7100000000000000000000000000000000000000000000000000000000600052604160045260246000fd5b61079c82610511565b810181811067ffffffffffffffff821117156107bb576107ba610764565b5b80604052505050565b60006107ce61068f565b90506107da8282610793565b919050565b600067ffffffffffffffff8211156107fa576107f9610764565b5b61080382610511565b9050602081019050919050565b82818337600083830152505050565b600061083261082d846107df565b6107c4565b90508281526020810184848401111561084e5761084d61075f565b5b610859848285610810565b509392505050565b600082601f8301126108765761087561075a565b5b813561088684826020860161081f565b91505092915050565b600080604083850312156108a6576108a5610699565b5b600083013567ffffffffffffffff8111156108c4576108c361069e565b5b6108d085828601610861565b925050602083013567ffffffffffffffff8111156108f1576108f061069e565b5b6108fd85828601610861565b9150509250929050565b610910816105c9565b811461091b57600080fd5b50565b60008135905061092d81610907565b92915050565b60006020828403121561094957610948610699565b5b60006109578482850161091e565b91505092915050565b7f4e487b7100000000000000000000000000000000000000000000000000000000600052602260045260246000fd5b600060028204905060018216806109a757607f821691505b602082108114156109bb576109ba610960565b5b5091905056fea2646970667358221220b3f02151ed33bb3ec0b4c9a410aacb1790c422335b9a3532d5cb9cb26bc0020564736f6c63430008090033a2646970667358221220d45c59697c308aae8f8fc3eb9b412782d3604d29a1f5e8b18cc66c3d6beb216764736f6c63430008090033",
  "immutableReferences": {},
  "source": "// SPDX-License-Identifier: MIT\npragma solidity ^0.8.0;\n\nimport \"./Patient.sol\";\nimport \"./MedicalRecord.sol\";\n\ncontract Repository {\n    mapping(uint => address) public patients;\n    uint private nextPatientId = 0;\n\n    event PatientAdded(uint patientdId, address patientAddress);\n    event MedicalRecordAdded(uint recordId, address recordAddress);\n    event PatientUpdated(uint patientId, string newName, string newDateOfBirth);\n    event MedicalRecordUpdated(uint patientId, uint medicalRecordId, string newDateOfVisit, string newDiagnosis, string newTreatment);\n\n    function addPatient(string memory name, string memory dateOfBirth) public {\n        Patient patient = new Patient(nextPatientId, name, dateOfBirth);\n        patients[nextPatientId] = address(patient);\n        emit PatientAdded(nextPatientId, address(patient));\n        nextPatientId++;\n    }\n\n    function updatePatient(uint patientId, string memory newName, string memory newDateOfBirth) public {\n        require(patientId < nextPatientId, \"Patient does not exist!\");\n        Patient(patients[patientId]).updateDetails(newName, newDateOfBirth);\n        emit PatientUpdated(patientId, newName, newDateOfBirth);\n    }\n\n    function addMedicalRecord(uint patientId, string memory dateOfVisit, string memory diagnosis, string memory treatment) public {\n        require(patientId < nextPatientId, \"Patient does not exist\");\n        Patient patient = Patient(patients[patientId]);\n        uint nextRecordId = patient.getMedicalRecordsCount();\n        MedicalRecord newRecord = new MedicalRecord(nextRecordId, patientId, dateOfVisit, diagnosis, treatment);\n        patient.addMedicalRecord(address(newRecord));\n        emit MedicalRecordAdded(nextRecordId, address(newRecord));\n    }\n\n    function updateMedicalRecord(uint patientId, uint medicalRecordId, string memory newDateOfVisit, string memory newDiagnosis, string memory newTreatment) public {\n        require(patientId < nextPatientId, \"Patient does not exist\");\n        Patient patient = Patient(patients[patientId]);\n        uint numberOfRecords = patient.getMedicalRecordsCount();\n        require(medicalRecordId < numberOfRecords, \"Medical Record with the given ID does not exist for that patient\");\n        address[] memory recordsAddresses = patient.getMedicalRecords();\n        MedicalRecord medicalRecord = MedicalRecord(recordsAddresses[medicalRecordId]);\n        medicalRecord.updateRecord(newDateOfVisit, newDiagnosis, newTreatment);\n        emit MedicalRecordUpdated(patientId, medicalRecordId, newDateOfVisit, newDiagnosis, newTreatment);\n    }\n\n    function getPatient(uint patientId) public view returns (address) {\n        require(patientId < nextPatientId, \"Patient does not exist!\");\n        return patients[patientId];\n    }\n\n    function getAllMedicalRecordsOfPatient(uint patientId) public view returns (address[] memory) {\n        require(patientId < nextPatientId, \"Patient does not exist!\");\n        Patient patient = Patient(patients[patientId]);\n        return patient.getMedicalRecords();\n    }\n\n    function getCertainMedicalRecordOfPatient(uint patientId, uint medicalRecordId) public view returns (address) {\n        require(patientId < nextPatientId, \"Patient does not exist!\");\n        Patient patient = Patient(patients[patientId]);\n        uint numberOfRecords = patient.getMedicalRecordsCount();\n        require(medicalRecordId < numberOfRecords, \"Medical Record with the given ID does not exist for that patient\");\n        address[] memory recordsAddresses = patient.getMedicalRecords();\n        return recordsAddresses[medicalRecordId - 1];\n    }\n}\n",
  "sourcePath": "/home/senzationall/Desktop/blockchain_cristi/contracts/Repository.sol",
  "compiler": {
    "name": "solc",
    "version": "0.8.9+commit.e5eed63a.Emscripten.clang"
  },
  "schemaVersion": "3.4.16",
  "updatedAt": "2024-05-12T22:52:26.743Z",
  "networkType": "ethereum",
  "devdoc": {
    "kind": "dev",
    "methods": {},
    "version": 1
  },
  "userdoc": {
    "kind": "user",
    "methods": {},
    "version": 1
  }
}