{
  "contractName": "Repository",
  "abi": [
    {
      "anonymous": false,
      "inputs": [
        {
          "indexed": false,
          "internalType": "uint256",
          "name": "recordId",
          "type": "uint256"
        },
        {
          "indexed": false,
          "internalType": "address",
          "name": "recordAddress",
          "type": "address"
        }
      ],
      "name": "MedicalRecordAdded",
      "type": "event"
    },
    {
      "anonymous": false,
      "inputs": [
        {
          "indexed": false,
          "internalType": "uint256",
          "name": "patientId",
          "type": "uint256"
        },
        {
          "indexed": false,
          "internalType": "uint256",
          "name": "medicalRecordId",
          "type": "uint256"
        },
        {
          "indexed": false,
          "internalType": "string",
          "name": "newDateOfVisit",
          "type": "string"
        },
        {
          "indexed": false,
          "internalType": "string",
          "name": "newDiagnosis",
          "type": "string"
        },
        {
          "indexed": false,
          "internalType": "string",
          "name": "newTreatment",
          "type": "string"
        }
      ],
      "name": "MedicalRecordUpdated",
      "type": "event"
    },
    {
      "anonymous": false,
      "inputs": [
        {
          "indexed": false,
          "internalType": "uint256",
          "name": "patientdId",
          "type": "uint256"
        },
        {
          "indexed": false,
          "internalType": "address",
          "name": "patientAddress",
          "type": "address"
        }
      ],
      "name": "PatientAdded",
      "type": "event"
    },
    {
      "anonymous": false,
      "inputs": [
        {
          "indexed": false,
          "internalType": "uint256",
          "name": "patientId",
          "type": "uint256"
        },
        {
          "indexed": false,
          "internalType": "string",
          "name": "newName",
          "type": "string"
        },
        {
          "indexed": false,
          "internalType": "string",
          "name": "newDateOfBirth",
          "type": "string"
        }
      ],
      "name": "PatientUpdated",
      "type": "event"
    },
    {
      "inputs": [
        {
          "internalType": "uint256",
          "name": "",
          "type": "uint256"
        }
      ],
      "name": "patients",
      "outputs": [
        {
          "internalType": "address",
          "name": "",
          "type": "address"
        }
      ],
      "stateMutability": "view",
      "type": "function"
    },
    {
      "inputs": [
        {
          "internalType": "string",
          "name": "name",
          "type": "string"
        },
        {
          "internalType": "string",
          "name": "dateOfBirth",
          "type": "string"
        }
      ],
      "name": "addPatient",
      "outputs": [],
      "stateMutability": "nonpayable",
      "type": "function"
    },
    {
      "inputs": [
        {
          "internalType": "uint256",
          "name": "patientId",
          "type": "uint256"
        },
        {
          "internalType": "string",
          "name": "newName",
          "type": "string"
        },
        {
          "internalType": "string",
          "name": "newDateOfBirth",
          "type": "string"
        }
      ],
      "name": "updatePatient",
      "outputs": [],
      "stateMutability": "nonpayable",
      "type": "function"
    },
    {
      "inputs": [
        {
          "internalType": "uint256",
          "name": "patientId",
          "type": "uint256"
        },
        {
          "internalType": "string",
          "name": "dateOfVisit",
          "type": "string"
        },
        {
          "internalType": "string",
          "name": "diagnosis",
          "type": "string"
        },
        {
          "internalType": "string",
          "name": "treatment",
          "type": "string"
        }
      ],
      "name": "addMedicalRecord",
      "outputs": [],
      "stateMutability": "nonpayable",
      "type": "function"
    },
    {
      "inputs": [
        {
          "internalType": "uint256",
          "name": "patientId",
          "type": "uint256"
        },
        {
          "internalType": "uint256",
          "name": "medicalRecordId",
          "type": "uint256"
        },
        {
          "internalType": "string",
          "name": "newDateOfVisit",
          "type": "string"
        },
        {
          "internalType": "string",
          "name": "newDiagnosis",
          "type": "string"
        },
        {
          "internalType": "string",
          "name": "newTreatment",
          "type": "string"
        }
      ],
      "name": "updateMedicalRecord",
      "outputs": [],
      "stateMutability": "nonpayable",
      "type": "function"
    },
    {
      "inputs": [],
      "name": "getAllPatients",
      "outputs": [
        {
          "internalType": "address[]",
          "name": "",
          "type": "address[]"
        }
      ],
      "stateMutability": "view",
      "type": "function"
    },
    {
      "inputs": [
        {
          "internalType": "uint256",
          "name": "patientId",
          "type": "uint256"
        }
      ],
      "name": "getPatient",
      "outputs": [
        {
          "internalType": "address",
          "name": "",
          "type": "address"
        }
      ],
      "stateMutability": "view",
      "type": "function"
    },
    {
      "inputs": [
        {
          "internalType": "uint256",
          "name": "patientId",
          "type": "uint256"
        }
      ],
      "name": "getAllMedicalRecordsOfPatient",
      "outputs": [
        {
          "internalType": "address[]",
          "name": "",
          "type": "address[]"
        }
      ],
      "stateMutability": "view",
      "type": "function"
    },
    {
      "inputs": [
        {
          "internalType": "uint256",
          "name": "patientId",
          "type": "uint256"
        },
        {
          "internalType": "uint256",
          "name": "medicalRecordId",
          "type": "uint256"
        }
      ],
      "name": "getCertainMedicalRecordOfPatient",
      "outputs": [
        {
          "internalType": "address",
          "name": "",
          "type": "address"
        }
      ],
      "stateMutability": "view",
      "type": "function"
    }
  ],
  "bytecode": "0x6080604052600060015534801561001557600080fd5b5061344c806100256000396000f3fe60806040523480156200001157600080fd5b50600436106200009f5760003560e01c8063392c7d24116200006f578063392c7d24146200013c578063622d6f2e14620001725780636b9603a014620001925780637d3a679614620001b257806393119a8314620001e8576200009f565b8062ee980614620000a457806302ea03f514620000c457806318a231a914620000fa578063239ee6c1146200011c575b600080fd5b620000c26004803603810190620000bc919062000f9c565b6200021e565b005b620000e26004803603810190620000dc91906200106b565b6200041a565b604051620000f191906200119f565b60405180910390f35b6200010462000529565b6040516200011391906200119f565b60405180910390f35b6200013a6004803603810190620001349190620011c3565b6200063a565b005b6200015a600480360381019062000154919062001248565b6200072b565b604051620001699190620012a0565b60405180910390f35b6200019060048036038101906200018a9190620012bd565b62000938565b005b620001b06004803603810190620001aa9190620013a2565b62000bed565b005b620001d06004803603810190620001ca91906200106b565b62000d19565b604051620001df9190620012a0565b60405180910390f35b6200020660048036038101906200020091906200106b565b62000d9c565b604051620002159190620012a0565b60405180910390f35b600154841062000265576040517f08c379a00000000000000000000000000000000000000000000000000000000081526004016200025c906200149d565b60405180910390fd5b600080600086815260200190815260200160002060009054906101000a900473ffffffffffffffffffffffffffffffffffffffff16905060008173ffffffffffffffffffffffffffffffffffffffff1663921defe26040518163ffffffff1660e01b815260040160206040518083038186803b158015620002e557600080fd5b505afa158015620002fa573d6000803e3d6000fd5b505050506040513d601f19601f82011682018060405250810190620003209190620014d6565b905060008187878787604051620003379062000dcf565b620003479594939291906200159b565b604051809103906000f08015801562000364573d6000803e3d6000fd5b5090508273ffffffffffffffffffffffffffffffffffffffff1663d868de85826040518263ffffffff1660e01b8152600401620003a29190620012a0565b600060405180830381600087803b158015620003bd57600080fd5b505af1158015620003d2573d6000803e3d6000fd5b505050507fe044e1a74d838bb16071292163edcd9738bebc4ce13f0f82970765915f55b5408282604051620004099291906200160d565b60405180910390a150505050505050565b6060600154821062000463576040517f08c379a00000000000000000000000000000000000000000000000000000000081526004016200045a906200168a565b60405180910390fd5b600080600084815260200190815260200160002060009054906101000a900473ffffffffffffffffffffffffffffffffffffffff1690508073ffffffffffffffffffffffffffffffffffffffff16636aea20d36040518163ffffffff1660e01b815260040160006040518083038186803b158015620004e157600080fd5b505afa158015620004f6573d6000803e3d6000fd5b505050506040513d6000823e3d601f19601f82011682018060405250810190620005219190620017b8565b915050919050565b6060600060015467ffffffffffffffff8111156200054c576200054b62000e55565b5b6040519080825280602002602001820160405280156200057b5781602001602082028036833780820191505090505b50905060005b6001805462000591919062001838565b811015620006325760008082815260200190815260200160002060009054906101000a900473ffffffffffffffffffffffffffffffffffffffff16828281518110620005e257620005e162001873565b5b602002602001019073ffffffffffffffffffffffffffffffffffffffff16908173ffffffffffffffffffffffffffffffffffffffff168152505080806200062990620018a2565b91505062000581565b508091505090565b600060015483836040516200064f9062000ddd565b6200065d93929190620018f0565b604051809103906000f0801580156200067a573d6000803e3d6000fd5b50905080600080600154815260200190815260200160002060006101000a81548173ffffffffffffffffffffffffffffffffffffffff021916908373ffffffffffffffffffffffffffffffffffffffff1602179055507e8ee0d7f73acba2d90cbbea216105d2cc694594456539675e4a1d750fa9bda060015482604051620007049291906200160d565b60405180910390a1600160008154809291906200072190620018a2565b9190505550505050565b6000600154831062000774576040517f08c379a00000000000000000000000000000000000000000000000000000000081526004016200076b906200168a565b60405180910390fd5b600080600085815260200190815260200160002060009054906101000a900473ffffffffffffffffffffffffffffffffffffffff16905060008173ffffffffffffffffffffffffffffffffffffffff1663921defe26040518163ffffffff1660e01b815260040160206040518083038186803b158015620007f457600080fd5b505afa15801562000809573d6000803e3d6000fd5b505050506040513d601f19601f820116820180604052508101906200082f9190620014d6565b905080841062000876576040517f08c379a00000000000000000000000000000000000000000000000000000000081526004016200086d90620019b1565b60405180910390fd5b60008273ffffffffffffffffffffffffffffffffffffffff16636aea20d36040518163ffffffff1660e01b815260040160006040518083038186803b158015620008bf57600080fd5b505afa158015620008d4573d6000803e3d6000fd5b505050506040513d6000823e3d601f19601f82011682018060405250810190620008ff9190620017b8565b90508060018662000911919062001838565b8151811062000925576200092462001873565b5b6020026020010151935050505092915050565b60015485106200097f576040517f08c379a000000000000000000000000000000000000000000000000000000000815260040162000976906200149d565b60405180910390fd5b600080600087815260200190815260200160002060009054906101000a900473ffffffffffffffffffffffffffffffffffffffff16905060008173ffffffffffffffffffffffffffffffffffffffff1663921defe26040518163ffffffff1660e01b815260040160206040518083038186803b158015620009ff57600080fd5b505afa15801562000a14573d6000803e3d6000fd5b505050506040513d601f19601f8201168201806040525081019062000a3a9190620014d6565b905080861062000a81576040517f08c379a000000000000000000000000000000000000000000000000000000000815260040162000a7890620019b1565b60405180910390fd5b60008273ffffffffffffffffffffffffffffffffffffffff16636aea20d36040518163ffffffff1660e01b815260040160006040518083038186803b15801562000aca57600080fd5b505afa15801562000adf573d6000803e3d6000fd5b505050506040513d6000823e3d601f19601f8201168201806040525081019062000b0a9190620017b8565b9050600081888151811062000b245762000b2362001873565b5b602002602001015190508073ffffffffffffffffffffffffffffffffffffffff1663f30562b68888886040518463ffffffff1660e01b815260040162000b6d93929190620019d3565b600060405180830381600087803b15801562000b8857600080fd5b505af115801562000b9d573d6000803e3d6000fd5b505050507febb9e826e044d243c0bd3f13da41959bdb651a44ad974447504e4bd0a5bba95d898989898960405162000bda9594939291906200159b565b60405180910390a1505050505050505050565b600154831062000c34576040517f08c379a000000000000000000000000000000000000000000000000000000000815260040162000c2b906200168a565b60405180910390fd5b60008084815260200190815260200160002060009054906101000a900473ffffffffffffffffffffffffffffffffffffffff1673ffffffffffffffffffffffffffffffffffffffff1663ac1bc7e883836040518363ffffffff1660e01b815260040162000ca392919062001a25565b600060405180830381600087803b15801562000cbe57600080fd5b505af115801562000cd3573d6000803e3d6000fd5b505050507fc1fdae1aa238a14149f13bc47ec4a1c106aa10b5c96acaa16129fa42d43c580a83838360405162000d0c93929190620018f0565b60405180910390a1505050565b6000600154821062000d62576040517f08c379a000000000000000000000000000000000000000000000000000000000815260040162000d59906200168a565b60405180910390fd5b60008083815260200190815260200160002060009054906101000a900473ffffffffffffffffffffffffffffffffffffffff169050919050565b60006020528060005260406000206000915054906101000a900473ffffffffffffffffffffffffffffffffffffffff1681565b610baf8062001a6183390190565b610e07806200261083390190565b6000604051905090565b600080fd5b600080fd5b6000819050919050565b62000e148162000dff565b811462000e2057600080fd5b50565b60008135905062000e348162000e09565b92915050565b600080fd5b600080fd5b6000601f19601f8301169050919050565b7f4e487b7100000000000000000000000000000000000000000000000000000000600052604160045260246000fd5b62000e8f8262000e44565b810181811067ffffffffffffffff8211171562000eb15762000eb062000e55565b5b80604052505050565b600062000ec662000deb565b905062000ed4828262000e84565b919050565b600067ffffffffffffffff82111562000ef75762000ef662000e55565b5b62000f028262000e44565b9050602081019050919050565b82818337600083830152505050565b600062000f3562000f2f8462000ed9565b62000eba565b90508281526020810184848401111562000f545762000f5362000e3f565b5b62000f6184828562000f0f565b509392505050565b600082601f83011262000f815762000f8062000e3a565b5b813562000f9384826020860162000f1e565b91505092915050565b6000806000806080858703121562000fb95762000fb862000df5565b5b600062000fc98782880162000e23565b945050602085013567ffffffffffffffff81111562000fed5762000fec62000dfa565b5b62000ffb8782880162000f69565b935050604085013567ffffffffffffffff8111156200101f576200101e62000dfa565b5b6200102d8782880162000f69565b925050606085013567ffffffffffffffff81111562001051576200105062000dfa565b5b6200105f8782880162000f69565b91505092959194509250565b60006020828403121562001084576200108362000df5565b5b6000620010948482850162000e23565b91505092915050565b600081519050919050565b600082825260208201905092915050565b6000819050602082019050919050565b600073ffffffffffffffffffffffffffffffffffffffff82169050919050565b6000620010f682620010c9565b9050919050565b6200110881620010e9565b82525050565b60006200111c8383620010fd565b60208301905092915050565b6000602082019050919050565b600062001142826200109d565b6200114e8185620010a8565b93506200115b83620010b9565b8060005b83811015620011925781516200117688826200110e565b9750620011838362001128565b9250506001810190506200115f565b5085935050505092915050565b60006020820190508181036000830152620011bb818462001135565b905092915050565b60008060408385031215620011dd57620011dc62000df5565b5b600083013567ffffffffffffffff811115620011fe57620011fd62000dfa565b5b6200120c8582860162000f69565b925050602083013567ffffffffffffffff81111562001230576200122f62000dfa565b5b6200123e8582860162000f69565b9150509250929050565b6000806040838503121562001262576200126162000df5565b5b6000620012728582860162000e23565b9250506020620012858582860162000e23565b9150509250929050565b6200129a81620010e9565b82525050565b6000602082019050620012b760008301846200128f565b92915050565b600080600080600060a08688031215620012dc57620012db62000df5565b5b6000620012ec8882890162000e23565b9550506020620012ff8882890162000e23565b945050604086013567ffffffffffffffff81111562001323576200132262000dfa565b5b620013318882890162000f69565b935050606086013567ffffffffffffffff81111562001355576200135462000dfa565b5b620013638882890162000f69565b925050608086013567ffffffffffffffff81111562001387576200138662000dfa565b5b620013958882890162000f69565b9150509295509295909350565b600080600060608486031215620013be57620013bd62000df5565b5b6000620013ce8682870162000e23565b935050602084013567ffffffffffffffff811115620013f257620013f162000dfa565b5b620014008682870162000f69565b925050604084013567ffffffffffffffff81111562001424576200142362000dfa565b5b620014328682870162000f69565b9150509250925092565b600082825260208201905092915050565b7f50617469656e7420646f6573206e6f7420657869737400000000000000000000600082015250565b6000620014856016836200143c565b915062001492826200144d565b602082019050919050565b60006020820190508181036000830152620014b88162001476565b9050919050565b600081519050620014d08162000e09565b92915050565b600060208284031215620014ef57620014ee62000df5565b5b6000620014ff84828501620014bf565b91505092915050565b620015138162000dff565b82525050565b600081519050919050565b60005b838110156200154457808201518184015260208101905062001527565b8381111562001554576000848401525b50505050565b6000620015678262001519565b6200157381856200143c565b93506200158581856020860162001524565b620015908162000e44565b840191505092915050565b600060a082019050620015b2600083018862001508565b620015c1602083018762001508565b8181036040830152620015d581866200155a565b90508181036060830152620015eb81856200155a565b905081810360808301526200160181846200155a565b90509695505050505050565b600060408201905062001624600083018562001508565b6200163360208301846200128f565b9392505050565b7f50617469656e7420646f6573206e6f7420657869737421000000000000000000600082015250565b6000620016726017836200143c565b91506200167f826200163a565b602082019050919050565b60006020820190508181036000830152620016a58162001663565b9050919050565b600067ffffffffffffffff821115620016ca57620016c962000e55565b5b602082029050602081019050919050565b600080fd5b620016eb81620010e9565b8114620016f757600080fd5b50565b6000815190506200170b81620016e0565b92915050565b6000620017286200172284620016ac565b62000eba565b905080838252602082019050602084028301858111156200174e576200174d620016db565b5b835b818110156200177b5780620017668882620016fa565b84526020840193505060208101905062001750565b5050509392505050565b600082601f8301126200179d576200179c62000e3a565b5b8151620017af84826020860162001711565b91505092915050565b600060208284031215620017d157620017d062000df5565b5b600082015167ffffffffffffffff811115620017f257620017f162000dfa565b5b620018008482850162001785565b91505092915050565b7f4e487b7100000000000000000000000000000000000000000000000000000000600052601160045260246000fd5b6000620018458262000dff565b9150620018528362000dff565b92508282101562001868576200186762001809565b5b828203905092915050565b7f4e487b7100000000000000000000000000000000000000000000000000000000600052603260045260246000fd5b6000620018af8262000dff565b91507fffffffffffffffffffffffffffffffffffffffffffffffffffffffffffffffff821415620018e557620018e462001809565b5b600182019050919050565b600060608201905062001907600083018662001508565b81810360208301526200191b81856200155a565b905081810360408301526200193181846200155a565b9050949350505050565b7f4d65646963616c205265636f726420776974682074686520676976656e20494460008201527f20646f6573206e6f7420657869737420666f7220746861742070617469656e74602082015250565b6000620019996040836200143c565b9150620019a6826200193b565b604082019050919050565b60006020820190508181036000830152620019cc816200198a565b9050919050565b60006060820190508181036000830152620019ef81866200155a565b9050818103602083015262001a0581856200155a565b9050818103604083015262001a1b81846200155a565b9050949350505050565b6000604082019050818103600083015262001a4181856200155a565b9050818103602083015262001a5781846200155a565b9050939250505056fe60806040523480156200001157600080fd5b5060405162000baf38038062000baf833981810160405281019062000037919062000323565b846000819055508360018190555082600290805190602001906200005d9291906200009b565b508160039080519060200190620000769291906200009b565b5080600490805190602001906200008f9291906200009b565b5050505050506200046d565b828054620000a99062000437565b90600052602060002090601f016020900481019282620000cd576000855562000119565b82601f10620000e857805160ff191683800117855562000119565b8280016001018555821562000119579182015b8281111562000118578251825591602001919060010190620000fb565b5b5090506200012891906200012c565b5090565b5b80821115620001475760008160009055506001016200012d565b5090565b6000604051905090565b600080fd5b600080fd5b6000819050919050565b62000174816200015f565b81146200018057600080fd5b50565b600081519050620001948162000169565b92915050565b600080fd5b600080fd5b6000601f19601f8301169050919050565b7f4e487b7100000000000000000000000000000000000000000000000000000000600052604160045260246000fd5b620001ef82620001a4565b810181811067ffffffffffffffff82111715620002115762000210620001b5565b5b80604052505050565b6000620002266200014b565b9050620002348282620001e4565b919050565b600067ffffffffffffffff821115620002575762000256620001b5565b5b6200026282620001a4565b9050602081019050919050565b60005b838110156200028f57808201518184015260208101905062000272565b838111156200029f576000848401525b50505050565b6000620002bc620002b68462000239565b6200021a565b905082815260208101848484011115620002db57620002da6200019f565b5b620002e88482856200026f565b509392505050565b600082601f8301126200030857620003076200019a565b5b81516200031a848260208601620002a5565b91505092915050565b600080600080600060a0868803121562000342576200034162000155565b5b6000620003528882890162000183565b9550506020620003658882890162000183565b945050604086015167ffffffffffffffff8111156200038957620003886200015a565b5b6200039788828901620002f0565b935050606086015167ffffffffffffffff811115620003bb57620003ba6200015a565b5b620003c988828901620002f0565b925050608086015167ffffffffffffffff811115620003ed57620003ec6200015a565b5b620003fb88828901620002f0565b9150509295509295909350565b7f4e487b7100000000000000000000000000000000000000000000000000000000600052602260045260246000fd5b600060028204905060018216806200045057607f821691505b6020821081141562000467576200046662000408565b5b50919050565b610732806200047d6000396000f3fe608060405234801561001057600080fd5b50600436106100625760003560e01c8063395c2add146100675780638beed22a14610085578063af640d0f146100a3578063ca310670146100c1578063e07f4444146100df578063f30562b6146100fd575b600080fd5b61006f610119565b60405161007c9190610455565b60405180910390f35b61008d6101a7565b60405161009a9190610455565b60405180910390f35b6100ab610235565b6040516100b89190610490565b60405180910390f35b6100c961023b565b6040516100d69190610455565b60405180910390f35b6100e76102c9565b6040516100f49190610490565b60405180910390f35b610117600480360381019061011291906105f4565b6102cf565b005b60028054610126906106ca565b80601f0160208091040260200160405190810160405280929190818152602001828054610152906106ca565b801561019f5780601f106101745761010080835404028352916020019161019f565b820191906000526020600020905b81548152906001019060200180831161018257829003601f168201915b505050505081565b600380546101b4906106ca565b80601f01602080910402602001604051908101604052809291908181526020018280546101e0906106ca565b801561022d5780601f106102025761010080835404028352916020019161022d565b820191906000526020600020905b81548152906001019060200180831161021057829003601f168201915b505050505081565b60005481565b60048054610248906106ca565b80601f0160208091040260200160405190810160405280929190818152602001828054610274906106ca565b80156102c15780601f10610296576101008083540402835291602001916102c1565b820191906000526020600020905b8154815290600101906020018083116102a457829003601f168201915b505050505081565b60015481565b82600290805190602001906102e5929190610319565b5081600390805190602001906102fc929190610319565b508060049080519060200190610313929190610319565b50505050565b828054610325906106ca565b90600052602060002090601f016020900481019282610347576000855561038e565b82601f1061036057805160ff191683800117855561038e565b8280016001018555821561038e579182015b8281111561038d578251825591602001919060010190610372565b5b50905061039b919061039f565b5090565b5b808211156103b85760008160009055506001016103a0565b5090565b600081519050919050565b600082825260208201905092915050565b60005b838110156103f65780820151818401526020810190506103db565b83811115610405576000848401525b50505050565b6000601f19601f8301169050919050565b6000610427826103bc565b61043181856103c7565b93506104418185602086016103d8565b61044a8161040b565b840191505092915050565b6000602082019050818103600083015261046f818461041c565b905092915050565b6000819050919050565b61048a81610477565b82525050565b60006020820190506104a56000830184610481565b92915050565b6000604051905090565b600080fd5b600080fd5b600080fd5b600080fd5b7f4e487b7100000000000000000000000000000000000000000000000000000000600052604160045260246000fd5b6105018261040b565b810181811067ffffffffffffffff821117156105205761051f6104c9565b5b80604052505050565b60006105336104ab565b905061053f82826104f8565b919050565b600067ffffffffffffffff82111561055f5761055e6104c9565b5b6105688261040b565b9050602081019050919050565b82818337600083830152505050565b600061059761059284610544565b610529565b9050828152602081018484840111156105b3576105b26104c4565b5b6105be848285610575565b509392505050565b600082601f8301126105db576105da6104bf565b5b81356105eb848260208601610584565b91505092915050565b60008060006060848603121561060d5761060c6104b5565b5b600084013567ffffffffffffffff81111561062b5761062a6104ba565b5b610637868287016105c6565b935050602084013567ffffffffffffffff811115610658576106576104ba565b5b610664868287016105c6565b925050604084013567ffffffffffffffff811115610685576106846104ba565b5b610691868287016105c6565b9150509250925092565b7f4e487b7100000000000000000000000000000000000000000000000000000000600052602260045260246000fd5b600060028204905060018216806106e257607f821691505b602082108114156106f6576106f561069b565b5b5091905056fea264697066735822122006976a271e26b4e1db7d3433601508c53fc535f275d5830ad4ccb0d1dc1b322b64736f6c6343000809003360806040523480156200001157600080fd5b5060405162000e0738038062000e07833981810160405281019062000037919062000301565b8260008190555081600190805190602001906200005692919062000079565b5080600290805190602001906200006f92919062000079565b5050505062000400565b8280546200008790620003ca565b90600052602060002090601f016020900481019282620000ab5760008555620000f7565b82601f10620000c657805160ff1916838001178555620000f7565b82800160010185558215620000f7579182015b82811115620000f6578251825591602001919060010190620000d9565b5b5090506200010691906200010a565b5090565b5b80821115620001255760008160009055506001016200010b565b5090565b6000604051905090565b600080fd5b600080fd5b6000819050919050565b62000152816200013d565b81146200015e57600080fd5b50565b600081519050620001728162000147565b92915050565b600080fd5b600080fd5b6000601f19601f8301169050919050565b7f4e487b7100000000000000000000000000000000000000000000000000000000600052604160045260246000fd5b620001cd8262000182565b810181811067ffffffffffffffff82111715620001ef57620001ee62000193565b5b80604052505050565b60006200020462000129565b9050620002128282620001c2565b919050565b600067ffffffffffffffff82111562000235576200023462000193565b5b620002408262000182565b9050602081019050919050565b60005b838110156200026d57808201518184015260208101905062000250565b838111156200027d576000848401525b50505050565b60006200029a620002948462000217565b620001f8565b905082815260208101848484011115620002b957620002b86200017d565b5b620002c68482856200024d565b509392505050565b600082601f830112620002e657620002e562000178565b5b8151620002f884826020860162000283565b91505092915050565b6000806000606084860312156200031d576200031c62000133565b5b60006200032d8682870162000161565b935050602084015167ffffffffffffffff81111562000351576200035062000138565b5b6200035f86828701620002ce565b925050604084015167ffffffffffffffff81111562000383576200038262000138565b5b6200039186828701620002ce565b9150509250925092565b7f4e487b7100000000000000000000000000000000000000000000000000000000600052602260045260246000fd5b60006002820490506001821680620003e357607f821691505b60208210811415620003fa57620003f96200039b565b5b50919050565b6109f780620004106000396000f3fe608060405234801561001057600080fd5b50600436106100885760003560e01c8063921defe21161005b578063921defe214610117578063ac1bc7e814610135578063af640d0f14610151578063d868de851461016f57610088565b806306fdde031461008d578063615dac4e146100ab5780636aea20d3146100c95780637564a13c146100e7575b600080fd5b61009561018b565b6040516100a2919061055b565b60405180910390f35b6100b3610219565b6040516100c0919061055b565b60405180910390f35b6100d16102a7565b6040516100de919061066d565b60405180910390f35b61010160048036038101906100fc91906106d9565b610335565b60405161010e9190610715565b60405180910390f35b61011f610374565b60405161012c919061073f565b60405180910390f35b61014f600480360381019061014a919061088f565b610381565b005b6101596103b3565b604051610166919061073f565b60405180910390f35b61018960048036038101906101849190610933565b6103b9565b005b600180546101989061098f565b80601f01602080910402602001604051908101604052809291908181526020018280546101c49061098f565b80156102115780601f106101e657610100808354040283529160200191610211565b820191906000526020600020905b8154815290600101906020018083116101f457829003601f168201915b505050505081565b600280546102269061098f565b80601f01602080910402602001604051908101604052809291908181526020018280546102529061098f565b801561029f5780601f106102745761010080835404028352916020019161029f565b820191906000526020600020905b81548152906001019060200180831161028257829003601f168201915b505050505081565b6060600380548060200260200160405190810160405280929190818152602001828054801561032b57602002820191906000526020600020905b8160009054906101000a900473ffffffffffffffffffffffffffffffffffffffff1673ffffffffffffffffffffffffffffffffffffffff16815260200190600101908083116102e1575b5050505050905090565b6003818154811061034557600080fd5b906000526020600020016000915054906101000a900473ffffffffffffffffffffffffffffffffffffffff1681565b6000600380549050905090565b816001908051906020019061039792919061041f565b5080600290805190602001906103ae92919061041f565b505050565b60005481565b6003819080600181540180825580915050600190039060005260206000200160009091909190916101000a81548173ffffffffffffffffffffffffffffffffffffffff021916908373ffffffffffffffffffffffffffffffffffffffff16021790555050565b82805461042b9061098f565b90600052602060002090601f01602090048101928261044d5760008555610494565b82601f1061046657805160ff1916838001178555610494565b82800160010185558215610494579182015b82811115610493578251825591602001919060010190610478565b5b5090506104a191906104a5565b5090565b5b808211156104be5760008160009055506001016104a6565b5090565b600081519050919050565b600082825260208201905092915050565b60005b838110156104fc5780820151818401526020810190506104e1565b8381111561050b576000848401525b50505050565b6000601f19601f8301169050919050565b600061052d826104c2565b61053781856104cd565b93506105478185602086016104de565b61055081610511565b840191505092915050565b600060208201905081810360008301526105758184610522565b905092915050565b600081519050919050565b600082825260208201905092915050565b6000819050602082019050919050565b600073ffffffffffffffffffffffffffffffffffffffff82169050919050565b60006105d4826105a9565b9050919050565b6105e4816105c9565b82525050565b60006105f683836105db565b60208301905092915050565b6000602082019050919050565b600061061a8261057d565b6106248185610588565b935061062f83610599565b8060005b8381101561066057815161064788826105ea565b975061065283610602565b925050600181019050610633565b5085935050505092915050565b60006020820190508181036000830152610687818461060f565b905092915050565b6000604051905090565b600080fd5b600080fd5b6000819050919050565b6106b6816106a3565b81146106c157600080fd5b50565b6000813590506106d3816106ad565b92915050565b6000602082840312156106ef576106ee610699565b5b60006106fd848285016106c4565b91505092915050565b61070f816105c9565b82525050565b600060208201905061072a6000830184610706565b92915050565b610739816106a3565b82525050565b60006020820190506107546000830184610730565b92915050565b600080fd5b600080fd5b7f4e487b7100000000000000000000000000000000000000000000000000000000600052604160045260246000fd5b61079c82610511565b810181811067ffffffffffffffff821117156107bb576107ba610764565b5b80604052505050565b60006107ce61068f565b90506107da8282610793565b919050565b600067ffffffffffffffff8211156107fa576107f9610764565b5b61080382610511565b9050602081019050919050565b82818337600083830152505050565b600061083261082d846107df565b6107c4565b90508281526020810184848401111561084e5761084d61075f565b5b610859848285610810565b509392505050565b600082601f8301126108765761087561075a565b5b813561088684826020860161081f565b91505092915050565b600080604083850312156108a6576108a5610699565b5b600083013567ffffffffffffffff8111156108c4576108c361069e565b5b6108d085828601610861565b925050602083013567ffffffffffffffff8111156108f1576108f061069e565b5b6108fd85828601610861565b9150509250929050565b610910816105c9565b811461091b57600080fd5b50565b60008135905061092d81610907565b92915050565b60006020828403121561094957610948610699565b5b60006109578482850161091e565b91505092915050565b7f4e487b7100000000000000000000000000000000000000000000000000000000600052602260045260246000fd5b600060028204905060018216806109a757607f821691505b602082108114156109bb576109ba610960565b5b5091905056fea2646970667358221220e98506770a70b09fd2e091c488cac5b0a68d2fd74d875d40149f972148e784bc64736f6c63430008090033a2646970667358221220813112e3266065803e0a851b5c6d9dcb55a1fefd64d6c6097921c01fa07f284b64736f6c63430008090033",
  "immutableReferences": {},
  "source": "// SPDX-License-Identifier: MIT\npragma solidity ^0.8.0;\n\nimport \"./Patient.sol\";\nimport \"./MedicalRecord.sol\";\n\ncontract Repository {\n    mapping(uint => address) public patients;\n    uint private nextPatientId = 0;\n\n    event PatientAdded(uint patientdId, address patientAddress);\n    event MedicalRecordAdded(uint recordId, address recordAddress);\n    event PatientUpdated(uint patientId, string newName, string newDateOfBirth);\n    event MedicalRecordUpdated(uint patientId, uint medicalRecordId, string newDateOfVisit, string newDiagnosis, string newTreatment);\n\n    function addPatient(string memory name, string memory dateOfBirth) public {\n        Patient patient = new Patient(nextPatientId, name, dateOfBirth);\n        patients[nextPatientId] = address(patient);\n        emit PatientAdded(nextPatientId, address(patient));\n        nextPatientId++;\n    }\n\n    function updatePatient(uint patientId, string memory newName, string memory newDateOfBirth) public {\n        require(patientId < nextPatientId, \"Patient does not exist!\");\n        Patient(patients[patientId]).updateDetails(newName, newDateOfBirth);\n        emit PatientUpdated(patientId, newName, newDateOfBirth);\n    }\n\n    function addMedicalRecord(uint patientId, string memory dateOfVisit, string memory diagnosis, string memory treatment) public {\n        require(patientId < nextPatientId, \"Patient does not exist\");\n        Patient patient = Patient(patients[patientId]);\n        uint nextRecordId = patient.getMedicalRecordsCount();\n        MedicalRecord newRecord = new MedicalRecord(nextRecordId, patientId, dateOfVisit, diagnosis, treatment);\n        patient.addMedicalRecord(address(newRecord));\n        emit MedicalRecordAdded(nextRecordId, address(newRecord));\n    }\n\n    function updateMedicalRecord(uint patientId, uint medicalRecordId, string memory newDateOfVisit, string memory newDiagnosis, string memory newTreatment) public {\n        require(patientId < nextPatientId, \"Patient does not exist\");\n        Patient patient = Patient(patients[patientId]);\n        uint numberOfRecords = patient.getMedicalRecordsCount();\n        require(medicalRecordId < numberOfRecords, \"Medical Record with the given ID does not exist for that patient\");\n        address[] memory recordsAddresses = patient.getMedicalRecords();\n        MedicalRecord medicalRecord = MedicalRecord(recordsAddresses[medicalRecordId]);\n        medicalRecord.updateRecord(newDateOfVisit, newDiagnosis, newTreatment);\n        emit MedicalRecordUpdated(patientId, medicalRecordId, newDateOfVisit, newDiagnosis, newTreatment);\n    }\n\n    function getAllPatients() public view returns (address[] memory) {\n        address[] memory allPatients = new address[](nextPatientId);\n        for (uint i = 0; i < nextPatientId - 1; i++) {\n            allPatients[i] = patients[i];\n        }\n        return allPatients;\n    }\n\n    function getPatient(uint patientId) public view returns (address) {\n        require(patientId < nextPatientId, \"Patient does not exist!\");\n        return patients[patientId];\n    }\n\n    function getAllMedicalRecordsOfPatient(uint patientId) public view returns (address[] memory) {\n        require(patientId < nextPatientId, \"Patient does not exist!\");\n        Patient patient = Patient(patients[patientId]);\n        return patient.getMedicalRecords();\n    }\n\n    function getCertainMedicalRecordOfPatient(uint patientId, uint medicalRecordId) public view returns (address) {\n        require(patientId < nextPatientId, \"Patient does not exist!\");\n        Patient patient = Patient(patients[patientId]);\n        uint numberOfRecords = patient.getMedicalRecordsCount();\n        require(medicalRecordId < numberOfRecords, \"Medical Record with the given ID does not exist for that patient\");\n        address[] memory recordsAddresses = patient.getMedicalRecords();\n        return recordsAddresses[medicalRecordId - 1];\n    }\n}\n",
  "sourcePath": "C:\\Users\\munte\\Desktop\\FirstContract\\ceva\\contracts\\Repository.sol",
  "compiler": {
    "name": "solc",
    "version": "0.8.9+commit.e5eed63a.Emscripten.clang"
  },
  "schemaVersion": "3.4.16",
  "updatedAt": "2024-05-11T18:43:08.149Z",
  "devdoc": {
    "kind": "dev",
    "methods": {},
    "version": 1
  },
  "userdoc": {
    "kind": "user",
    "methods": {},
    "version": 1
  }
}